{
  "_format": "hh-sol-artifact-1",
  "contractName": "ParentStorage",
  "sourceName": "contracts/arogya/ParentStorage.sol",
  "abi": [
    {
      "inputs": [
        {
          "internalType": "uint256",
          "name": "demoUid",
          "type": "uint256"
        }
      ],
      "stateMutability": "nonpayable",
      "type": "constructor"
    },
    {
      "anonymous": false,
      "inputs": [
        {
          "indexed": false,
          "internalType": "address",
          "name": "address_new_TokenFactory",
          "type": "address"
        }
      ],
      "name": "LogNFTDeployment",
      "type": "event"
    },
    {
      "inputs": [
        {
          "internalType": "uint256",
          "name": "",
          "type": "uint256"
        }
      ],
      "name": "TokenFactoryStorage",
      "outputs": [
        {
          "internalType": "address",
          "name": "",
          "type": "address"
        }
      ],
      "stateMutability": "view",
      "type": "function"
    },
    {
      "inputs": [],
      "name": "_demoUid",
      "outputs": [
        {
          "internalType": "uint256",
          "name": "",
          "type": "uint256"
        }
      ],
      "stateMutability": "view",
      "type": "function"
    },
    {
      "inputs": [
        {
          "internalType": "address",
          "name": "",
          "type": "address"
        }
      ],
      "name": "accessMapping1",
      "outputs": [
        {
          "internalType": "address",
          "name": "",
          "type": "address"
        }
      ],
      "stateMutability": "view",
      "type": "function"
    },
    {
      "inputs": [
        {
          "internalType": "address",
          "name": "",
          "type": "address"
        }
      ],
      "name": "accessMapping2",
      "outputs": [
        {
          "internalType": "address",
          "name": "",
          "type": "address"
        }
      ],
      "stateMutability": "view",
      "type": "function"
    },
    {
      "inputs": [
        {
          "internalType": "bytes32",
          "name": "baseURI",
          "type": "bytes32"
        },
        {
          "internalType": "bytes32",
          "name": "ownerName",
          "type": "bytes32"
        },
        {
          "internalType": "uint256",
          "name": "ownerAge",
          "type": "uint256"
        },
        {
          "internalType": "bytes32",
          "name": "ownerBloodGroup",
          "type": "bytes32"
        },
        {
          "internalType": "bytes32",
          "name": "ownerAllergies",
          "type": "bytes32"
        },
        {
          "internalType": "bytes32",
          "name": "ownerMedication",
          "type": "bytes32"
        },
        {
          "internalType": "bytes32",
          "name": "ownerAbout",
          "type": "bytes32"
        }
      ],
      "name": "deployNFT",
      "outputs": [],
      "stateMutability": "nonpayable",
      "type": "function"
    },
    {
      "inputs": [
        {
          "internalType": "address",
          "name": "",
          "type": "address"
        }
      ],
      "name": "deployedFromAddress",
      "outputs": [
        {
          "internalType": "uint256",
          "name": "",
          "type": "uint256"
        }
      ],
      "stateMutability": "view",
      "type": "function"
    },
    {
      "inputs": [],
      "name": "getAddresses",
      "outputs": [
        {
          "internalType": "address[]",
          "name": "",
          "type": "address[]"
        }
      ],
      "stateMutability": "view",
      "type": "function"
    },
    {
      "inputs": [],
      "name": "uid",
      "outputs": [
        {
          "internalType": "uint256",
          "name": "",
          "type": "uint256"
        }
      ],
      "stateMutability": "view",
      "type": "function"
    }
  ],
  "bytecode": "0x6080604052600160025534801561001557600080fd5b50604051615e32380380615e328339818101604052810190610037919061007f565b80600081905550506100ac565b600080fd5b6000819050919050565b61005c81610049565b811461006757600080fd5b50565b60008151905061007981610053565b92915050565b60006020828403121561009557610094610044565b5b60006100a38482850161006a565b91505092915050565b615d77806100bb6000396000f3fe60806040523480156200001157600080fd5b5060043610620000945760003560e01c8063a39fac121162000063578063a39fac12146200015d578063ad73cecd146200017f578063db0d4b12146200019f578063f514ce3614620001d55762000094565b80630cae1e0c146200009957806332f42e3b14620000cf578063341e1da814620000f15780639b9ff5311462000127575b600080fd5b620000b76004803603810190620000b1919062000677565b620001f7565b604051620000c69190620006ba565b60405180910390f35b620000d96200022a565b604051620000e89190620006f2565b60405180910390f35b6200010f600480360381019062000109919062000677565b62000230565b6040516200011e9190620006ba565b60405180910390f35b6200014560048036038101906200013f919062000740565b62000263565b604051620001549190620006ba565b60405180910390f35b62000167620002a3565b60405162000176919062000840565b60405180910390f35b6200019d60048036038101906200019791906200089f565b62000333565b005b620001bd6004803603810190620001b7919062000677565b620005e1565b604051620001cc9190620006f2565b60405180910390f35b620001df620005f9565b604051620001ee9190620006f2565b60405180910390f35b60036020528060005260406000206000915054906101000a900473ffffffffffffffffffffffffffffffffffffffff1681565b60005481565b60046020528060005260406000206000915054906101000a900473ffffffffffffffffffffffffffffffffffffffff1681565b600181815481106200027457600080fd5b906000526020600020016000915054906101000a900473ffffffffffffffffffffffffffffffffffffffff1681565b606060018054806020026020016040519081016040528092919081815260200182805480156200032957602002820191906000526020600020905b8160009054906101000a900473ffffffffffffffffffffffffffffffffffffffff1673ffffffffffffffffffffffffffffffffffffffff1681526020019060010190808311620002de575b5050505050905090565b6000600560003373ffffffffffffffffffffffffffffffffffffffff1673ffffffffffffffffffffffffffffffffffffffff16815260200190815260200160002054146200038057600080fd5b600087873388888888886002546040516200039b90620005ff565b620003af9998979695949392919062000963565b604051809103906000f080158015620003cc573d6000803e3d6000fd5b5090506001600254620003e0919062000a31565b6002819055506001819080600181540180825580915050600190039060005260206000200160009091909190916101000a81548173ffffffffffffffffffffffffffffffffffffffff021916908373ffffffffffffffffffffffffffffffffffffffff16021790555033600360008373ffffffffffffffffffffffffffffffffffffffff1673ffffffffffffffffffffffffffffffffffffffff16815260200190815260200160002060006101000a81548173ffffffffffffffffffffffffffffffffffffffff021916908373ffffffffffffffffffffffffffffffffffffffff16021790555080600460003373ffffffffffffffffffffffffffffffffffffffff1673ffffffffffffffffffffffffffffffffffffffff16815260200190815260200160002060006101000a81548173ffffffffffffffffffffffffffffffffffffffff021916908373ffffffffffffffffffffffffffffffffffffffff1602179055506001600560003373ffffffffffffffffffffffffffffffffffffffff1673ffffffffffffffffffffffffffffffffffffffff168152602001908152602001600020600082825462000597919062000a31565b925050819055507f21abc446be85920c20044d46e4c2ad247c964091aeaea950e75be759c6562cc481604051620005cf9190620006ba565b60405180910390a15050505050505050565b60056020528060005260406000206000915090505481565b60025481565b6152d58062000a6d83390190565b600080fd5b600073ffffffffffffffffffffffffffffffffffffffff82169050919050565b60006200063f8262000612565b9050919050565b620006518162000632565b81146200065d57600080fd5b50565b600081359050620006718162000646565b92915050565b60006020828403121562000690576200068f6200060d565b5b6000620006a08482850162000660565b91505092915050565b620006b48162000632565b82525050565b6000602082019050620006d16000830184620006a9565b92915050565b6000819050919050565b620006ec81620006d7565b82525050565b6000602082019050620007096000830184620006e1565b92915050565b6200071a81620006d7565b81146200072657600080fd5b50565b6000813590506200073a816200070f565b92915050565b6000602082840312156200075957620007586200060d565b5b6000620007698482850162000729565b91505092915050565b600081519050919050565b600082825260208201905092915050565b6000819050602082019050919050565b620007a98162000632565b82525050565b6000620007bd83836200079e565b60208301905092915050565b6000602082019050919050565b6000620007e38262000772565b620007ef81856200077d565b9350620007fc836200078e565b8060005b8381101562000833578151620008178882620007af565b97506200082483620007c9565b92505060018101905062000800565b5085935050505092915050565b600060208201905081810360008301526200085c8184620007d6565b905092915050565b6000819050919050565b620008798162000864565b81146200088557600080fd5b50565b60008135905062000899816200086e565b92915050565b600080600080600080600060e0888a031215620008c157620008c06200060d565b5b6000620008d18a828b0162000888565b9750506020620008e48a828b0162000888565b9650506040620008f78a828b0162000729565b95505060606200090a8a828b0162000888565b94505060806200091d8a828b0162000888565b93505060a0620009308a828b0162000888565b92505060c0620009438a828b0162000888565b91505092959891949750929550565b6200095d8162000864565b82525050565b6000610120820190506200097b600083018c62000952565b6200098a602083018b62000952565b62000999604083018a620006a9565b620009a86060830189620006e1565b620009b7608083018862000952565b620009c660a083018762000952565b620009d560c083018662000952565b620009e460e083018562000952565b620009f4610100830184620006e1565b9a9950505050505050505050565b7f4e487b7100000000000000000000000000000000000000000000000000000000600052601160045260246000fd5b600062000a3e82620006d7565b915062000a4b83620006d7565b925082820190508082111562000a665762000a6562000a02565b5b9291505056fe608060405260646015553480156200001657600080fd5b50604051620052d5380380620052d583398181016040528101906200003c9190620007c3565b620000836040518060400160405280600d81526020017f546f6b656e20466163746f727900000000000000000000000000000000000000815250826200020f60201b60201c565b620000ca6040518060400160405280600281526020017f5446000000000000000000000000000000000000000000000000000000000000815250836200020f60201b60201c565b8160009081620000db919062000b12565b508060019081620000ed919062000b12565b50505062000110620001046200024660201b60201c565b6200024e60201b60201c565b88600b81905550806013819055506040518060e001604052808981526020018873ffffffffffffffffffffffffffffffffffffffff16815260200187815260200186815260200185815260200184815260200183815250600c6000820151816000015560208201518160010160006101000a81548173ffffffffffffffffffffffffffffffffffffffff021916908373ffffffffffffffffffffffffffffffffffffffff16021790555060408201518160020155606082015181600301556080820151816004015560a0820151816005015560c0820151816006015590505062000200876200031460201b60201c565b50505050505050505062000e36565b606060006200022983620003aa60201b620015961760201c565b90506200023d84826200048e60201b60201c565b91505092915050565b600033905090565b6000600a60009054906101000a900473ffffffffffffffffffffffffffffffffffffffff16905081600a60006101000a81548173ffffffffffffffffffffffffffffffffffffffff021916908373ffffffffffffffffffffffffffffffffffffffff1602179055508173ffffffffffffffffffffffffffffffffffffffff168173ffffffffffffffffffffffffffffffffffffffff167f8be0079c531659141344cd1fd0a4f28419497f9722a3daafe3b4186f6b6457e060405160405180910390a35050565b62000324620004bc60201b60201c565b600073ffffffffffffffffffffffffffffffffffffffff168173ffffffffffffffffffffffffffffffffffffffff160362000396576040517f08c379a00000000000000000000000000000000000000000000000000000000081526004016200038d9062000c80565b60405180910390fd5b620003a7816200024e60201b60201c565b50565b606060006001620003c6846200054d60201b620016641760201c565b01905060008167ffffffffffffffff811115620003e857620003e7620008ad565b5b6040519080825280601f01601f1916602001820160405280156200041b5781602001600182028036833780820191505090505b509050600082602001820190505b60011562000483578080600190039150507f3031323334353637383961626364656600000000000000000000000000000000600a86061a8153600a858162000476576200047562000ca2565b5b0494506000850362000429575b819350505050919050565b60608282604051602001620004a592919062000d8f565b604051602081830303815290604052905092915050565b620004cc6200024660201b60201c565b73ffffffffffffffffffffffffffffffffffffffff16620004f2620006b960201b60201c565b73ffffffffffffffffffffffffffffffffffffffff16146200054b576040517f08c379a0000000000000000000000000000000000000000000000000000000008152600401620005429062000e14565b60405180910390fd5b565b600080600090507a184f03e93ff9f4daa797ed6e38ed64bf6a1f0100000000000000008310620005af577a184f03e93ff9f4daa797ed6e38ed64bf6a1f0100000000000000008381620005a557620005a462000ca2565b5b0492506040810190505b6d04ee2d6d415b85acef81000000008310620005f0576d04ee2d6d415b85acef81000000008381620005e657620005e562000ca2565b5b0492506020810190505b662386f26fc1000083106200062357662386f26fc10000838162000619576200061862000ca2565b5b0492506010810190505b6305f5e100831062000650576305f5e100838162000646576200064562000ca2565b5b0492506008810190505b6127108310620006795761271083816200066f576200066e62000ca2565b5b0492506004810190505b60648310620006a0576064838162000696576200069562000ca2565b5b0492506002810190505b600a8310620006b0576001810190505b80915050919050565b6000600a60009054906101000a900473ffffffffffffffffffffffffffffffffffffffff16905090565b600080fd5b6000819050919050565b620006fd81620006e8565b81146200070957600080fd5b50565b6000815190506200071d81620006f2565b92915050565b600073ffffffffffffffffffffffffffffffffffffffff82169050919050565b6000620007508262000723565b9050919050565b620007628162000743565b81146200076e57600080fd5b50565b600081519050620007828162000757565b92915050565b6000819050919050565b6200079d8162000788565b8114620007a957600080fd5b50565b600081519050620007bd8162000792565b92915050565b60008060008060008060008060006101208a8c031215620007e957620007e8620006e3565b5b6000620007f98c828d016200070c565b99505060206200080c8c828d016200070c565b98505060406200081f8c828d0162000771565b9750506060620008328c828d01620007ac565b9650506080620008458c828d016200070c565b95505060a0620008588c828d016200070c565b94505060c06200086b8c828d016200070c565b93505060e06200087e8c828d016200070c565b925050610100620008928c828d01620007ac565b9150509295985092959850929598565b600081519050919050565b7f4e487b7100000000000000000000000000000000000000000000000000000000600052604160045260246000fd5b7f4e487b7100000000000000000000000000000000000000000000000000000000600052602260045260246000fd5b600060028204905060018216806200092457607f821691505b6020821081036200093a5762000939620008dc565b5b50919050565b60008190508160005260206000209050919050565b60006020601f8301049050919050565b600082821b905092915050565b600060088302620009a47fffffffffffffffffffffffffffffffffffffffffffffffffffffffffffffffff8262000965565b620009b0868362000965565b95508019841693508086168417925050509392505050565b6000819050919050565b6000620009f3620009ed620009e78462000788565b620009c8565b62000788565b9050919050565b6000819050919050565b62000a0f83620009d2565b62000a2762000a1e82620009fa565b84845462000972565b825550505050565b600090565b62000a3e62000a2f565b62000a4b81848462000a04565b505050565b5b8181101562000a735762000a6760008262000a34565b60018101905062000a51565b5050565b601f82111562000ac25762000a8c8162000940565b62000a978462000955565b8101602085101562000aa7578190505b62000abf62000ab68562000955565b83018262000a50565b50505b505050565b600082821c905092915050565b600062000ae76000198460080262000ac7565b1980831691505092915050565b600062000b02838362000ad4565b9150826002028217905092915050565b62000b1d82620008a2565b67ffffffffffffffff81111562000b395762000b38620008ad565b5b62000b4582546200090b565b62000b5282828562000a77565b600060209050601f83116001811462000b8a576000841562000b75578287015190505b62000b81858262000af4565b86555062000bf1565b601f19841662000b9a8662000940565b60005b8281101562000bc45784890151825560018201915060208501945060208101905062000b9d565b8683101562000be4578489015162000be0601f89168262000ad4565b8355505b6001600288020188555050505b505050505050565b600082825260208201905092915050565b7f4f776e61626c653a206e6577206f776e657220697320746865207a65726f206160008201527f6464726573730000000000000000000000000000000000000000000000000000602082015250565b600062000c6860268362000bf9565b915062000c758262000c0a565b604082019050919050565b6000602082019050818103600083015262000c9b8162000c59565b9050919050565b7f4e487b7100000000000000000000000000000000000000000000000000000000600052601260045260246000fd5b600081905092915050565b60005b8381101562000cfc57808201518184015260208101905062000cdf565b60008484015250505050565b600062000d1582620008a2565b62000d21818562000cd1565b935062000d3381856020860162000cdc565b80840191505092915050565b7f2000000000000000000000000000000000000000000000000000000000000000600082015250565b600062000d7760018362000cd1565b915062000d848262000d3f565b600182019050919050565b600062000d9d828562000d08565b915062000daa8262000d68565b915062000db8828462000d08565b91508190509392505050565b7f4f776e61626c653a2063616c6c6572206973206e6f7420746865206f776e6572600082015250565b600062000dfc60208362000bf9565b915062000e098262000dc4565b602082019050919050565b6000602082019050818103600083015262000e2f8162000ded565b9050919050565b61448f8062000e466000396000f3fe6080604052600436106101dc5760003560e01c80636f9fb98a11610102578063a0fcd94811610095578063c87b56dd11610064578063c87b56dd146106fa578063d645ddf614610737578063e985e9c514610753578063f2fde38b14610790576101e3565b8063a0fcd94814610636578063a22cb46514610677578063b3cee131146106a0578063b88d4fde146106d1576101e3565b80637df43b82116100d15780637df43b82146105785780638296a2e8146105b55780638da5cb5b146105e057806395d89b411461060b576101e3565b80636f9fb98a146104ce57806370a08231146104f9578063714cff5614610536578063715018a614610561576101e3565b806323b872dd1161017a57806342842e0e1161014957806342842e0e146104005780634f6ccce7146104295780635f769621146104665780636352211e14610491576101e3565b806323b872dd14610332578063266001d31461035b5780632f745c59146103985780633c471725146103d5576101e3565b8063095ea7b3116101b6578063095ea7b31461028a57806316c38b3c146102b357806316c61ccc146102dc57806318160ddd14610307576101e3565b806301ffc9a7146101e557806306fdde0314610222578063081812fc1461024d576101e3565b366101e357005b005b3480156101f157600080fd5b5061020c60048036038101906102079190612bdc565b6107b9565b6040516102199190612c24565b60405180910390f35b34801561022e57600080fd5b50610237610833565b6040516102449190612ccf565b60405180910390f35b34801561025957600080fd5b50610274600480360381019061026f9190612d27565b6108c5565b6040516102819190612d95565b60405180910390f35b34801561029657600080fd5b506102b160048036038101906102ac9190612ddc565b61090b565b005b3480156102bf57600080fd5b506102da60048036038101906102d59190612e48565b610a22565b005b3480156102e857600080fd5b506102f1610a47565b6040516102fe9190612c24565b60405180910390f35b34801561031357600080fd5b5061031c610a5a565b6040516103299190612e84565b60405180910390f35b34801561033e57600080fd5b5061035960048036038101906103549190612e9f565b610a67565b005b34801561036757600080fd5b50610382600480360381019061037d9190613027565b610ac7565b60405161038f9190612ccf565b60405180910390f35b3480156103a457600080fd5b506103bf60048036038101906103ba9190612ddc565b610af3565b6040516103cc9190612e84565b60405180910390f35b3480156103e157600080fd5b506103ea610b98565b6040516103f79190613164565b60405180910390f35b34801561040c57600080fd5b5061042760048036038101906104229190612e9f565b610c44565b005b34801561043557600080fd5b50610450600480360381019061044b9190612d27565b610c64565b60405161045d9190612e84565b60405180910390f35b34801561047257600080fd5b5061047b610cd5565b6040516104889190612e84565b60405180910390f35b34801561049d57600080fd5b506104b860048036038101906104b39190612d27565b610cdb565b6040516104c59190612d95565b60405180910390f35b3480156104da57600080fd5b506104e3610d61565b6040516104f09190612e84565b60405180910390f35b34801561050557600080fd5b50610520600480360381019061051b919061317f565b610d71565b60405161052d9190612e84565b60405180910390f35b34801561054257600080fd5b5061054b610e28565b6040516105589190612e84565b60405180910390f35b34801561056d57600080fd5b50610576610e2e565b005b34801561058457600080fd5b5061059f600480360381019061059a91906131ac565b610e42565b6040516105ac9190612ccf565b60405180910390f35b3480156105c157600080fd5b506105ca610e64565b6040516105d79190612e84565b60405180910390f35b3480156105ec57600080fd5b506105f5610e6a565b6040516106029190612d95565b60405180910390f35b34801561061757600080fd5b50610620610e94565b60405161062d9190612ccf565b60405180910390f35b34801561064257600080fd5b5061065d60048036038101906106589190612d27565b610f26565b60405161066e959493929190613208565b60405180910390f35b34801561068357600080fd5b5061069e60048036038101906106999190613270565b611114565b005b3480156106ac57600080fd5b506106b561112a565b6040516106c897969594939291906132bf565b60405180910390f35b3480156106dd57600080fd5b506106f860048036038101906106f391906133cf565b61117a565b005b34801561070657600080fd5b50610721600480360381019061071c9190612d27565b6111dc565b60405161072e9190612ccf565b60405180910390f35b610751600480360381019061074c9190613452565b611244565b005b34801561075f57600080fd5b5061077a600480360381019061077591906134f9565b61147f565b6040516107879190612c24565b60405180910390f35b34801561079c57600080fd5b506107b760048036038101906107b2919061317f565b611513565b005b60007f780e9d63000000000000000000000000000000000000000000000000000000007bffffffffffffffffffffffffffffffffffffffffffffffffffffffff1916827bffffffffffffffffffffffffffffffffffffffffffffffffffffffff1916148061082c575061082b826117b7565b5b9050919050565b60606000805461084290613568565b80601f016020809104026020016040519081016040528092919081815260200182805461086e90613568565b80156108bb5780601f10610890576101008083540402835291602001916108bb565b820191906000526020600020905b81548152906001019060200180831161089e57829003601f168201915b5050505050905090565b60006108d082611899565b6004600083815260200190815260200160002060009054906101000a900473ffffffffffffffffffffffffffffffffffffffff169050919050565b600061091682610cdb565b90508073ffffffffffffffffffffffffffffffffffffffff168373ffffffffffffffffffffffffffffffffffffffff1603610986576040517f08c379a000000000000000000000000000000000000000000000000000000000815260040161097d9061360b565b60405180910390fd5b8073ffffffffffffffffffffffffffffffffffffffff166109a56118e4565b73ffffffffffffffffffffffffffffffffffffffff1614806109d457506109d3816109ce6118e4565b61147f565b5b610a13576040517f08c379a0000000000000000000000000000000000000000000000000000000008152600401610a0a9061369d565b60405180910390fd5b610a1d83836118ec565b505050565b610a2a6119a5565b80601460006101000a81548160ff02191690831515021790555050565b601460009054906101000a900460ff1681565b6000600880549050905090565b610a78610a726118e4565b82611a23565b610ab7576040517f08c379a0000000000000000000000000000000000000000000000000000000008152600401610aae9061372f565b60405180910390fd5b610ac2838383611ab8565b505050565b60608282604051602001610adc9291906137d7565b604051602081830303815290604052905092915050565b6000610afe83610d71565b8210610b3f576040517f08c379a0000000000000000000000000000000000000000000000000000000008152600401610b3690613878565b60405180910390fd5b600660008473ffffffffffffffffffffffffffffffffffffffff1673ffffffffffffffffffffffffffffffffffffffff168152602001908152602001600020600083815260200190815260200160002054905092915050565b610ba0612b0e565b600c6040518060e0016040529081600082015481526020016001820160009054906101000a900473ffffffffffffffffffffffffffffffffffffffff1673ffffffffffffffffffffffffffffffffffffffff1673ffffffffffffffffffffffffffffffffffffffff16815260200160028201548152602001600382015481526020016004820154815260200160058201548152602001600682015481525050905090565b610c5f8383836040518060200160405280600081525061117a565b505050565b6000610c6e610a5a565b8210610caf576040517f08c379a0000000000000000000000000000000000000000000000000000000008152600401610ca69061390a565b60405180910390fd5b60088281548110610cc357610cc261392a565b5b90600052602060002001549050919050565b60155481565b600080610ce783611db1565b9050600073ffffffffffffffffffffffffffffffffffffffff168173ffffffffffffffffffffffffffffffffffffffff1603610d58576040517f08c379a0000000000000000000000000000000000000000000000000000000008152600401610d4f906139a5565b60405180910390fd5b80915050919050565b6000610d6b6119a5565b47905090565b60008073ffffffffffffffffffffffffffffffffffffffff168273ffffffffffffffffffffffffffffffffffffffff1603610de1576040517f08c379a0000000000000000000000000000000000000000000000000000000008152600401610dd890613a37565b60405180910390fd5b600360008373ffffffffffffffffffffffffffffffffffffffff1673ffffffffffffffffffffffffffffffffffffffff168152602001908152602001600020549050919050565b60165481565b610e366119a5565b610e406000611dee565b565b60606000610e4f83611596565b9050610e5b8482610ac7565b91505092915050565b60135481565b6000600a60009054906101000a900473ffffffffffffffffffffffffffffffffffffffff16905090565b606060018054610ea390613568565b80601f0160208091040260200160405190810160405280929190818152602001828054610ecf90613568565b8015610f1c5780601f10610ef157610100808354040283529160200191610f1c565b820191906000526020600020905b815481529060010190602001808311610eff57829003601f168201915b5050505050905090565b60176020528060005260406000206000915090508060000160009054906101000a900473ffffffffffffffffffffffffffffffffffffffff1690806001018054610f6f90613568565b80601f0160208091040260200160405190810160405280929190818152602001828054610f9b90613568565b8015610fe85780601f10610fbd57610100808354040283529160200191610fe8565b820191906000526020600020905b815481529060010190602001808311610fcb57829003601f168201915b505050505090806002018054610ffd90613568565b80601f016020809104026020016040519081016040528092919081815260200182805461102990613568565b80156110765780601f1061104b57610100808354040283529160200191611076565b820191906000526020600020905b81548152906001019060200180831161105957829003601f168201915b50505050509080600301805461108b90613568565b80601f01602080910402602001604051908101604052809291908181526020018280546110b790613568565b80156111045780601f106110d957610100808354040283529160200191611104565b820191906000526020600020905b8154815290600101906020018083116110e757829003601f168201915b5050505050908060040154905085565b61112661111f6118e4565b8383611eb4565b5050565b600c8060000154908060010160009054906101000a900473ffffffffffffffffffffffffffffffffffffffff16908060020154908060030154908060040154908060050154908060060154905087565b61118b6111856118e4565b83611a23565b6111ca576040517f08c379a00000000000000000000000000000000000000000000000000000000081526004016111c19061372f565b60405180910390fd5b6111d684848484612020565b50505050565b60606111e782611899565b60006111f161207c565b90506000815111611211576040518060200160405280600081525061123c565b8061121b84611596565b60405160200161122c929190613a57565b6040516020818303038152906040525b915050919050565b601460009054906101000a900460ff1615611294576040517f08c379a000000000000000000000000000000000000000000000000000000000815260040161128b90613ac7565b60405180910390fd5b61129c6119a5565b600c60010160009054906101000a900473ffffffffffffffffffffffffffffffffffffffff1673ffffffffffffffffffffffffffffffffffffffff163373ffffffffffffffffffffffffffffffffffffffff16146112f957600080fd5b6015546016541061133f576040517f08c379a000000000000000000000000000000000000000000000000000000000815260040161133690613b59565b60405180910390fd5b6001601660008282546113529190613ba8565b9250508190555061136533601654612093565b60006040518060a00160405280600c60010160009054906101000a900473ffffffffffffffffffffffffffffffffffffffff1673ffffffffffffffffffffffffffffffffffffffff16815260200185815260200184815260200183815260200160165481525090508060176000601654815260200190815260200160002060008201518160000160006101000a81548173ffffffffffffffffffffffffffffffffffffffff021916908373ffffffffffffffffffffffffffffffffffffffff160217905550602082015181600101908161143f9190613d88565b5060408201518160020190816114559190613d88565b50606082015181600301908161146b9190613d88565b506080820151816004015590505050505050565b6000600560008473ffffffffffffffffffffffffffffffffffffffff1673ffffffffffffffffffffffffffffffffffffffff16815260200190815260200160002060008373ffffffffffffffffffffffffffffffffffffffff1673ffffffffffffffffffffffffffffffffffffffff16815260200190815260200160002060009054906101000a900460ff16905092915050565b61151b6119a5565b600073ffffffffffffffffffffffffffffffffffffffff168173ffffffffffffffffffffffffffffffffffffffff160361158a576040517f08c379a000000000000000000000000000000000000000000000000000000000815260040161158190613ecc565b60405180910390fd5b61159381611dee565b50565b6060600060016115a584611664565b01905060008167ffffffffffffffff8111156115c4576115c3612efc565b5b6040519080825280601f01601f1916602001820160405280156115f65781602001600182028036833780820191505090505b509050600082602001820190505b600115611659578080600190039150507f3031323334353637383961626364656600000000000000000000000000000000600a86061a8153600a858161164d5761164c613eec565b5b04945060008503611604575b819350505050919050565b600080600090507a184f03e93ff9f4daa797ed6e38ed64bf6a1f01000000000000000083106116c2577a184f03e93ff9f4daa797ed6e38ed64bf6a1f01000000000000000083816116b8576116b7613eec565b5b0492506040810190505b6d04ee2d6d415b85acef810000000083106116ff576d04ee2d6d415b85acef810000000083816116f5576116f4613eec565b5b0492506020810190505b662386f26fc10000831061172e57662386f26fc10000838161172457611723613eec565b5b0492506010810190505b6305f5e1008310611757576305f5e100838161174d5761174c613eec565b5b0492506008810190505b612710831061177c57612710838161177257611771613eec565b5b0492506004810190505b6064831061179f576064838161179557611794613eec565b5b0492506002810190505b600a83106117ae576001810190505b80915050919050565b60007f80ac58cd000000000000000000000000000000000000000000000000000000007bffffffffffffffffffffffffffffffffffffffffffffffffffffffff1916827bffffffffffffffffffffffffffffffffffffffffffffffffffffffff1916148061188257507f5b5e139f000000000000000000000000000000000000000000000000000000007bffffffffffffffffffffffffffffffffffffffffffffffffffffffff1916827bffffffffffffffffffffffffffffffffffffffffffffffffffffffff1916145b806118925750611891826120b1565b5b9050919050565b6118a28161211b565b6118e1576040517f08c379a00000000000000000000000000000000000000000000000000000000081526004016118d8906139a5565b60405180910390fd5b50565b600033905090565b816004600083815260200190815260200160002060006101000a81548173ffffffffffffffffffffffffffffffffffffffff021916908373ffffffffffffffffffffffffffffffffffffffff160217905550808273ffffffffffffffffffffffffffffffffffffffff1661195f83610cdb565b73ffffffffffffffffffffffffffffffffffffffff167f8c5be1e5ebec7d5bd14f71427d1e84f3dd0314c0f7b2291e5b200ac8c7c3b92560405160405180910390a45050565b6119ad6118e4565b73ffffffffffffffffffffffffffffffffffffffff166119cb610e6a565b73ffffffffffffffffffffffffffffffffffffffff1614611a21576040517f08c379a0000000000000000000000000000000000000000000000000000000008152600401611a1890613f67565b60405180910390fd5b565b600080611a2f83610cdb565b90508073ffffffffffffffffffffffffffffffffffffffff168473ffffffffffffffffffffffffffffffffffffffff161480611a715750611a70818561147f565b5b80611aaf57508373ffffffffffffffffffffffffffffffffffffffff16611a97846108c5565b73ffffffffffffffffffffffffffffffffffffffff16145b91505092915050565b8273ffffffffffffffffffffffffffffffffffffffff16611ad882610cdb565b73ffffffffffffffffffffffffffffffffffffffff1614611b2e576040517f08c379a0000000000000000000000000000000000000000000000000000000008152600401611b2590613ff9565b60405180910390fd5b600073ffffffffffffffffffffffffffffffffffffffff168273ffffffffffffffffffffffffffffffffffffffff1603611b9d576040517f08c379a0000000000000000000000000000000000000000000000000000000008152600401611b949061408b565b60405180910390fd5b611baa838383600161215c565b8273ffffffffffffffffffffffffffffffffffffffff16611bca82610cdb565b73ffffffffffffffffffffffffffffffffffffffff1614611c20576040517f08c379a0000000000000000000000000000000000000000000000000000000008152600401611c1790613ff9565b60405180910390fd5b6004600082815260200190815260200160002060006101000a81549073ffffffffffffffffffffffffffffffffffffffff02191690556001600360008573ffffffffffffffffffffffffffffffffffffffff1673ffffffffffffffffffffffffffffffffffffffff168152602001908152602001600020600082825403925050819055506001600360008473ffffffffffffffffffffffffffffffffffffffff1673ffffffffffffffffffffffffffffffffffffffff16815260200190815260200160002060008282540192505081905550816002600083815260200190815260200160002060006101000a81548173ffffffffffffffffffffffffffffffffffffffff021916908373ffffffffffffffffffffffffffffffffffffffff160217905550808273ffffffffffffffffffffffffffffffffffffffff168473ffffffffffffffffffffffffffffffffffffffff167fddf252ad1be2c89b69c2b068fc378daa952ba7f163c4a11628f55a4df523b3ef60405160405180910390a4611dac83838360016122ba565b505050565b60006002600083815260200190815260200160002060009054906101000a900473ffffffffffffffffffffffffffffffffffffffff169050919050565b6000600a60009054906101000a900473ffffffffffffffffffffffffffffffffffffffff16905081600a60006101000a81548173ffffffffffffffffffffffffffffffffffffffff021916908373ffffffffffffffffffffffffffffffffffffffff1602179055508173ffffffffffffffffffffffffffffffffffffffff168173ffffffffffffffffffffffffffffffffffffffff167f8be0079c531659141344cd1fd0a4f28419497f9722a3daafe3b4186f6b6457e060405160405180910390a35050565b8173ffffffffffffffffffffffffffffffffffffffff168373ffffffffffffffffffffffffffffffffffffffff1603611f22576040517f08c379a0000000000000000000000000000000000000000000000000000000008152600401611f19906140f7565b60405180910390fd5b80600560008573ffffffffffffffffffffffffffffffffffffffff1673ffffffffffffffffffffffffffffffffffffffff16815260200190815260200160002060008473ffffffffffffffffffffffffffffffffffffffff1673ffffffffffffffffffffffffffffffffffffffff16815260200190815260200160002060006101000a81548160ff0219169083151502179055508173ffffffffffffffffffffffffffffffffffffffff168373ffffffffffffffffffffffffffffffffffffffff167f17307eab39ab6107e8899845ad3d59bd9653f200f220920489ca2b5937696c31836040516120139190612c24565b60405180910390a3505050565b61202b848484611ab8565b612037848484846122c0565b612076576040517f08c379a000000000000000000000000000000000000000000000000000000000815260040161206d90614189565b60405180910390fd5b50505050565b606060405180602001604052806000815250905090565b6120ad828260405180602001604052806000815250612447565b5050565b60007f01ffc9a7000000000000000000000000000000000000000000000000000000007bffffffffffffffffffffffffffffffffffffffffffffffffffffffff1916827bffffffffffffffffffffffffffffffffffffffffffffffffffffffff1916149050919050565b60008073ffffffffffffffffffffffffffffffffffffffff1661213d83611db1565b73ffffffffffffffffffffffffffffffffffffffff1614159050919050565b612168848484846124a2565b60018111156121ac576040517f08c379a00000000000000000000000000000000000000000000000000000000081526004016121a39061421b565b60405180910390fd5b6000829050600073ffffffffffffffffffffffffffffffffffffffff168573ffffffffffffffffffffffffffffffffffffffff16036121f3576121ee816125c8565b612232565b8373ffffffffffffffffffffffffffffffffffffffff168573ffffffffffffffffffffffffffffffffffffffff1614612231576122308582612611565b5b5b600073ffffffffffffffffffffffffffffffffffffffff168473ffffffffffffffffffffffffffffffffffffffff16036122745761226f8161277e565b6122b3565b8473ffffffffffffffffffffffffffffffffffffffff168473ffffffffffffffffffffffffffffffffffffffff16146122b2576122b1848261284f565b5b5b5050505050565b50505050565b60006122e18473ffffffffffffffffffffffffffffffffffffffff166128ce565b1561243a578373ffffffffffffffffffffffffffffffffffffffff1663150b7a0261230a6118e4565b8786866040518563ffffffff1660e01b815260040161232c9493929190614290565b6020604051808303816000875af192505050801561236857506040513d601f19601f8201168201806040525081019061236591906142f1565b60015b6123ea573d8060008114612398576040519150601f19603f3d011682016040523d82523d6000602084013e61239d565b606091505b5060008151036123e2576040517f08c379a00000000000000000000000000000000000000000000000000000000081526004016123d990614189565b60405180910390fd5b805181602001fd5b63150b7a0260e01b7bffffffffffffffffffffffffffffffffffffffffffffffffffffffff1916817bffffffffffffffffffffffffffffffffffffffffffffffffffffffff19161491505061243f565b600190505b949350505050565b61245183836128f1565b61245e60008484846122c0565b61249d576040517f08c379a000000000000000000000000000000000000000000000000000000000815260040161249490614189565b60405180910390fd5b505050565b60018111156125c257600073ffffffffffffffffffffffffffffffffffffffff168473ffffffffffffffffffffffffffffffffffffffff16146125365780600360008673ffffffffffffffffffffffffffffffffffffffff1673ffffffffffffffffffffffffffffffffffffffff168152602001908152602001600020600082825461252e919061431e565b925050819055505b600073ffffffffffffffffffffffffffffffffffffffff168373ffffffffffffffffffffffffffffffffffffffff16146125c15780600360008573ffffffffffffffffffffffffffffffffffffffff1673ffffffffffffffffffffffffffffffffffffffff16815260200190815260200160002060008282546125b99190613ba8565b925050819055505b5b50505050565b6008805490506009600083815260200190815260200160002081905550600881908060018154018082558091505060019003906000526020600020016000909190919091505550565b6000600161261e84610d71565b612628919061431e565b905060006007600084815260200190815260200160002054905081811461270d576000600660008673ffffffffffffffffffffffffffffffffffffffff1673ffffffffffffffffffffffffffffffffffffffff168152602001908152602001600020600084815260200190815260200160002054905080600660008773ffffffffffffffffffffffffffffffffffffffff1673ffffffffffffffffffffffffffffffffffffffff168152602001908152602001600020600084815260200190815260200160002081905550816007600083815260200190815260200160002081905550505b6007600084815260200190815260200160002060009055600660008573ffffffffffffffffffffffffffffffffffffffff1673ffffffffffffffffffffffffffffffffffffffff16815260200190815260200160002060008381526020019081526020016000206000905550505050565b60006001600880549050612792919061431e565b90506000600960008481526020019081526020016000205490506000600883815481106127c2576127c161392a565b5b9060005260206000200154905080600883815481106127e4576127e361392a565b5b90600052602060002001819055508160096000838152602001908152602001600020819055506009600085815260200190815260200160002060009055600880548061283357612832614352565b5b6001900381819060005260206000200160009055905550505050565b600061285a83610d71565b905081600660008573ffffffffffffffffffffffffffffffffffffffff1673ffffffffffffffffffffffffffffffffffffffff168152602001908152602001600020600083815260200190815260200160002081905550806007600084815260200190815260200160002081905550505050565b6000808273ffffffffffffffffffffffffffffffffffffffff163b119050919050565b600073ffffffffffffffffffffffffffffffffffffffff168273ffffffffffffffffffffffffffffffffffffffff1603612960576040517f08c379a0000000000000000000000000000000000000000000000000000000008152600401612957906143cd565b60405180910390fd5b6129698161211b565b156129a9576040517f08c379a00000000000000000000000000000000000000000000000000000000081526004016129a090614439565b60405180910390fd5b6129b760008383600161215c565b6129c08161211b565b15612a00576040517f08c379a00000000000000000000000000000000000000000000000000000000081526004016129f790614439565b60405180910390fd5b6001600360008473ffffffffffffffffffffffffffffffffffffffff1673ffffffffffffffffffffffffffffffffffffffff16815260200190815260200160002060008282540192505081905550816002600083815260200190815260200160002060006101000a81548173ffffffffffffffffffffffffffffffffffffffff021916908373ffffffffffffffffffffffffffffffffffffffff160217905550808273ffffffffffffffffffffffffffffffffffffffff16600073ffffffffffffffffffffffffffffffffffffffff167fddf252ad1be2c89b69c2b068fc378daa952ba7f163c4a11628f55a4df523b3ef60405160405180910390a4612b0a6000838360016122ba565b5050565b6040518060e0016040528060008019168152602001600073ffffffffffffffffffffffffffffffffffffffff16815260200160008152602001600080191681526020016000801916815260200160008019168152602001600080191681525090565b6000604051905090565b600080fd5b600080fd5b60007fffffffff0000000000000000000000000000000000000000000000000000000082169050919050565b612bb981612b84565b8114612bc457600080fd5b50565b600081359050612bd681612bb0565b92915050565b600060208284031215612bf257612bf1612b7a565b5b6000612c0084828501612bc7565b91505092915050565b60008115159050919050565b612c1e81612c09565b82525050565b6000602082019050612c396000830184612c15565b92915050565b600081519050919050565b600082825260208201905092915050565b60005b83811015612c79578082015181840152602081019050612c5e565b60008484015250505050565b6000601f19601f8301169050919050565b6000612ca182612c3f565b612cab8185612c4a565b9350612cbb818560208601612c5b565b612cc481612c85565b840191505092915050565b60006020820190508181036000830152612ce98184612c96565b905092915050565b6000819050919050565b612d0481612cf1565b8114612d0f57600080fd5b50565b600081359050612d2181612cfb565b92915050565b600060208284031215612d3d57612d3c612b7a565b5b6000612d4b84828501612d12565b91505092915050565b600073ffffffffffffffffffffffffffffffffffffffff82169050919050565b6000612d7f82612d54565b9050919050565b612d8f81612d74565b82525050565b6000602082019050612daa6000830184612d86565b92915050565b612db981612d74565b8114612dc457600080fd5b50565b600081359050612dd681612db0565b92915050565b60008060408385031215612df357612df2612b7a565b5b6000612e0185828601612dc7565b9250506020612e1285828601612d12565b9150509250929050565b612e2581612c09565b8114612e3057600080fd5b50565b600081359050612e4281612e1c565b92915050565b600060208284031215612e5e57612e5d612b7a565b5b6000612e6c84828501612e33565b91505092915050565b612e7e81612cf1565b82525050565b6000602082019050612e996000830184612e75565b92915050565b600080600060608486031215612eb857612eb7612b7a565b5b6000612ec686828701612dc7565b9350506020612ed786828701612dc7565b9250506040612ee886828701612d12565b9150509250925092565b600080fd5b600080fd5b7f4e487b7100000000000000000000000000000000000000000000000000000000600052604160045260246000fd5b612f3482612c85565b810181811067ffffffffffffffff82111715612f5357612f52612efc565b5b80604052505050565b6000612f66612b70565b9050612f728282612f2b565b919050565b600067ffffffffffffffff821115612f9257612f91612efc565b5b612f9b82612c85565b9050602081019050919050565b82818337600083830152505050565b6000612fca612fc584612f77565b612f5c565b905082815260208101848484011115612fe657612fe5612ef7565b5b612ff1848285612fa8565b509392505050565b600082601f83011261300e5761300d612ef2565b5b813561301e848260208601612fb7565b91505092915050565b6000806040838503121561303e5761303d612b7a565b5b600083013567ffffffffffffffff81111561305c5761305b612b7f565b5b61306885828601612ff9565b925050602083013567ffffffffffffffff81111561308957613088612b7f565b5b61309585828601612ff9565b9150509250929050565b6000819050919050565b6130b28161309f565b82525050565b6130c181612d74565b82525050565b6130d081612cf1565b82525050565b60e0820160008201516130ec60008501826130a9565b5060208201516130ff60208501826130b8565b50604082015161311260408501826130c7565b50606082015161312560608501826130a9565b50608082015161313860808501826130a9565b5060a082015161314b60a08501826130a9565b5060c082015161315e60c08501826130a9565b50505050565b600060e08201905061317960008301846130d6565b92915050565b60006020828403121561319557613194612b7a565b5b60006131a384828501612dc7565b91505092915050565b600080604083850312156131c3576131c2612b7a565b5b600083013567ffffffffffffffff8111156131e1576131e0612b7f565b5b6131ed85828601612ff9565b92505060206131fe85828601612d12565b9150509250929050565b600060a08201905061321d6000830188612d86565b818103602083015261322f8187612c96565b905081810360408301526132438186612c96565b905081810360608301526132578185612c96565b90506132666080830184612e75565b9695505050505050565b6000806040838503121561328757613286612b7a565b5b600061329585828601612dc7565b92505060206132a685828601612e33565b9150509250929050565b6132b98161309f565b82525050565b600060e0820190506132d4600083018a6132b0565b6132e16020830189612d86565b6132ee6040830188612e75565b6132fb60608301876132b0565b61330860808301866132b0565b61331560a08301856132b0565b61332260c08301846132b0565b98975050505050505050565b600067ffffffffffffffff82111561334957613348612efc565b5b61335282612c85565b9050602081019050919050565b600061337261336d8461332e565b612f5c565b90508281526020810184848401111561338e5761338d612ef7565b5b613399848285612fa8565b509392505050565b600082601f8301126133b6576133b5612ef2565b5b81356133c684826020860161335f565b91505092915050565b600080600080608085870312156133e9576133e8612b7a565b5b60006133f787828801612dc7565b945050602061340887828801612dc7565b935050604061341987828801612d12565b925050606085013567ffffffffffffffff81111561343a57613439612b7f565b5b613446878288016133a1565b91505092959194509250565b60008060006060848603121561346b5761346a612b7a565b5b600084013567ffffffffffffffff81111561348957613488612b7f565b5b61349586828701612ff9565b935050602084013567ffffffffffffffff8111156134b6576134b5612b7f565b5b6134c286828701612ff9565b925050604084013567ffffffffffffffff8111156134e3576134e2612b7f565b5b6134ef86828701612ff9565b9150509250925092565b600080604083850312156135105761350f612b7a565b5b600061351e85828601612dc7565b925050602061352f85828601612dc7565b9150509250929050565b7f4e487b7100000000000000000000000000000000000000000000000000000000600052602260045260246000fd5b6000600282049050600182168061358057607f821691505b60208210810361359357613592613539565b5b50919050565b7f4552433732313a20617070726f76616c20746f2063757272656e74206f776e6560008201527f7200000000000000000000000000000000000000000000000000000000000000602082015250565b60006135f5602183612c4a565b915061360082613599565b604082019050919050565b60006020820190508181036000830152613624816135e8565b9050919050565b7f4552433732313a20617070726f76652063616c6c6572206973206e6f7420746f60008201527f6b656e206f776e6572206f7220617070726f76656420666f7220616c6c000000602082015250565b6000613687603d83612c4a565b91506136928261362b565b604082019050919050565b600060208201905081810360008301526136b68161367a565b9050919050565b7f4552433732313a2063616c6c6572206973206e6f7420746f6b656e206f776e6560008201527f72206f7220617070726f76656400000000000000000000000000000000000000602082015250565b6000613719602d83612c4a565b9150613724826136bd565b604082019050919050565b600060208201905081810360008301526137488161370c565b9050919050565b600081905092915050565b600061376582612c3f565b61376f818561374f565b935061377f818560208601612c5b565b80840191505092915050565b7f2000000000000000000000000000000000000000000000000000000000000000600082015250565b60006137c160018361374f565b91506137cc8261378b565b600182019050919050565b60006137e3828561375a565b91506137ee826137b4565b91506137fa828461375a565b91508190509392505050565b7f455243373231456e756d657261626c653a206f776e657220696e646578206f7560008201527f74206f6620626f756e6473000000000000000000000000000000000000000000602082015250565b6000613862602b83612c4a565b915061386d82613806565b604082019050919050565b6000602082019050818103600083015261389181613855565b9050919050565b7f455243373231456e756d657261626c653a20676c6f62616c20696e646578206f60008201527f7574206f6620626f756e64730000000000000000000000000000000000000000602082015250565b60006138f4602c83612c4a565b91506138ff82613898565b604082019050919050565b60006020820190508181036000830152613923816138e7565b9050919050565b7f4e487b7100000000000000000000000000000000000000000000000000000000600052603260045260246000fd5b7f4552433732313a20696e76616c696420746f6b656e2049440000000000000000600082015250565b600061398f601883612c4a565b915061399a82613959565b602082019050919050565b600060208201905081810360008301526139be81613982565b9050919050565b7f4552433732313a2061646472657373207a65726f206973206e6f74206120766160008201527f6c6964206f776e65720000000000000000000000000000000000000000000000602082015250565b6000613a21602983612c4a565b9150613a2c826139c5565b604082019050919050565b60006020820190508181036000830152613a5081613a14565b9050919050565b6000613a63828561375a565b9150613a6f828461375a565b91508190509392505050565b7f436f6e74726163742063757272656e746c792070617573656400000000000000600082015250565b6000613ab1601983612c4a565b9150613abc82613a7b565b602082019050919050565b60006020820190508181036000830152613ae081613aa4565b9050919050565b7f457863656564206d6178696d756d20546f6b776e466163746f7279207375707060008201527f6c79000000000000000000000000000000000000000000000000000000000000602082015250565b6000613b43602283612c4a565b9150613b4e82613ae7565b604082019050919050565b60006020820190508181036000830152613b7281613b36565b9050919050565b7f4e487b7100000000000000000000000000000000000000000000000000000000600052601160045260246000fd5b6000613bb382612cf1565b9150613bbe83612cf1565b9250828201905080821115613bd657613bd5613b79565b5b92915050565b60008190508160005260206000209050919050565b60006020601f8301049050919050565b600082821b905092915050565b600060088302613c3e7fffffffffffffffffffffffffffffffffffffffffffffffffffffffffffffffff82613c01565b613c488683613c01565b95508019841693508086168417925050509392505050565b6000819050919050565b6000613c85613c80613c7b84612cf1565b613c60565b612cf1565b9050919050565b6000819050919050565b613c9f83613c6a565b613cb3613cab82613c8c565b848454613c0e565b825550505050565b600090565b613cc8613cbb565b613cd3818484613c96565b505050565b5b81811015613cf757613cec600082613cc0565b600181019050613cd9565b5050565b601f821115613d3c57613d0d81613bdc565b613d1684613bf1565b81016020851015613d25578190505b613d39613d3185613bf1565b830182613cd8565b50505b505050565b600082821c905092915050565b6000613d5f60001984600802613d41565b1980831691505092915050565b6000613d788383613d4e565b9150826002028217905092915050565b613d9182612c3f565b67ffffffffffffffff811115613daa57613da9612efc565b5b613db48254613568565b613dbf828285613cfb565b600060209050601f831160018114613df25760008415613de0578287015190505b613dea8582613d6c565b865550613e52565b601f198416613e0086613bdc565b60005b82811015613e2857848901518255600182019150602085019450602081019050613e03565b86831015613e455784890151613e41601f891682613d4e565b8355505b6001600288020188555050505b505050505050565b7f4f776e61626c653a206e6577206f776e657220697320746865207a65726f206160008201527f6464726573730000000000000000000000000000000000000000000000000000602082015250565b6000613eb6602683612c4a565b9150613ec182613e5a565b604082019050919050565b60006020820190508181036000830152613ee581613ea9565b9050919050565b7f4e487b7100000000000000000000000000000000000000000000000000000000600052601260045260246000fd5b7f4f776e61626c653a2063616c6c6572206973206e6f7420746865206f776e6572600082015250565b6000613f51602083612c4a565b9150613f5c82613f1b565b602082019050919050565b60006020820190508181036000830152613f8081613f44565b9050919050565b7f4552433732313a207472616e736665722066726f6d20696e636f72726563742060008201527f6f776e6572000000000000000000000000000000000000000000000000000000602082015250565b6000613fe3602583612c4a565b9150613fee82613f87565b604082019050919050565b6000602082019050818103600083015261401281613fd6565b9050919050565b7f4552433732313a207472616e7366657220746f20746865207a65726f2061646460008201527f7265737300000000000000000000000000000000000000000000000000000000602082015250565b6000614075602483612c4a565b915061408082614019565b604082019050919050565b600060208201905081810360008301526140a481614068565b9050919050565b7f4552433732313a20617070726f766520746f2063616c6c657200000000000000600082015250565b60006140e1601983612c4a565b91506140ec826140ab565b602082019050919050565b60006020820190508181036000830152614110816140d4565b9050919050565b7f4552433732313a207472616e7366657220746f206e6f6e20455243373231526560008201527f63656976657220696d706c656d656e7465720000000000000000000000000000602082015250565b6000614173603283612c4a565b915061417e82614117565b604082019050919050565b600060208201905081810360008301526141a281614166565b9050919050565b7f455243373231456e756d657261626c653a20636f6e736563757469766520747260008201527f616e7366657273206e6f7420737570706f727465640000000000000000000000602082015250565b6000614205603583612c4a565b9150614210826141a9565b604082019050919050565b60006020820190508181036000830152614234816141f8565b9050919050565b600081519050919050565b600082825260208201905092915050565b60006142628261423b565b61426c8185614246565b935061427c818560208601612c5b565b61428581612c85565b840191505092915050565b60006080820190506142a56000830187612d86565b6142b26020830186612d86565b6142bf6040830185612e75565b81810360608301526142d18184614257565b905095945050505050565b6000815190506142eb81612bb0565b92915050565b60006020828403121561430757614306612b7a565b5b6000614315848285016142dc565b91505092915050565b600061432982612cf1565b915061433483612cf1565b925082820390508181111561434c5761434b613b79565b5b92915050565b7f4e487b7100000000000000000000000000000000000000000000000000000000600052603160045260246000fd5b7f4552433732313a206d696e7420746f20746865207a65726f2061646472657373600082015250565b60006143b7602083612c4a565b91506143c282614381565b602082019050919050565b600060208201905081810360008301526143e6816143aa565b9050919050565b7f4552433732313a20746f6b656e20616c7265616479206d696e74656400000000600082015250565b6000614423601c83612c4a565b915061442e826143ed565b602082019050919050565b6000602082019050818103600083015261445281614416565b905091905056fea26469706673582212201e4a2c2516f7b7f9d4e62de2f0a54071e93c75dac8eb1ccbaaf8d326ec82622e64736f6c63430008110033a2646970667358221220030c4891b440592459fc861b3811716a2ed9061fc244379892d1e86162fdc3a164736f6c63430008110033",
  "linkReferences": {},
  "deployedLinkReferences": {}
}