{
  "_format": "hh-sol-artifact-1",
  "contractName": "TokenFactory",
  "sourceName": "contracts/arogya/TokenFactory.sol",
  "abi": [
    {
      "inputs": [
        {
          "internalType": "bytes32",
          "name": "baseURI",
          "type": "bytes32"
        },
        {
          "internalType": "bytes32",
          "name": "ownerName",
          "type": "bytes32"
        },
        {
          "internalType": "address payable",
          "name": "ownerAddress",
          "type": "address"
        },
        {
          "internalType": "uint256",
          "name": "ownerAge",
          "type": "uint256"
        },
        {
          "internalType": "bytes32",
          "name": "ownerBloodGroup",
          "type": "bytes32"
        },
        {
          "internalType": "bytes32",
          "name": "ownerAllergies",
          "type": "bytes32"
        },
        {
          "internalType": "bytes32",
          "name": "ownerMedication",
          "type": "bytes32"
        },
        {
          "internalType": "bytes32",
          "name": "ownerAbout",
          "type": "bytes32"
        },
        {
          "internalType": "uint256",
          "name": "uid",
          "type": "uint256"
        }
      ],
      "stateMutability": "nonpayable",
      "type": "constructor"
    },
    {
      "anonymous": false,
      "inputs": [
        {
          "indexed": true,
          "internalType": "address",
          "name": "owner",
          "type": "address"
        },
        {
          "indexed": true,
          "internalType": "address",
          "name": "approved",
          "type": "address"
        },
        {
          "indexed": true,
          "internalType": "uint256",
          "name": "tokenId",
          "type": "uint256"
        }
      ],
      "name": "Approval",
      "type": "event"
    },
    {
      "anonymous": false,
      "inputs": [
        {
          "indexed": true,
          "internalType": "address",
          "name": "owner",
          "type": "address"
        },
        {
          "indexed": true,
          "internalType": "address",
          "name": "operator",
          "type": "address"
        },
        {
          "indexed": false,
          "internalType": "bool",
          "name": "approved",
          "type": "bool"
        }
      ],
      "name": "ApprovalForAll",
      "type": "event"
    },
    {
      "anonymous": false,
      "inputs": [
        {
          "indexed": true,
          "internalType": "address",
          "name": "previousOwner",
          "type": "address"
        },
        {
          "indexed": true,
          "internalType": "address",
          "name": "newOwner",
          "type": "address"
        }
      ],
      "name": "OwnershipTransferred",
      "type": "event"
    },
    {
      "anonymous": false,
      "inputs": [
        {
          "indexed": true,
          "internalType": "address",
          "name": "from",
          "type": "address"
        },
        {
          "indexed": true,
          "internalType": "address",
          "name": "to",
          "type": "address"
        },
        {
          "indexed": true,
          "internalType": "uint256",
          "name": "tokenId",
          "type": "uint256"
        }
      ],
      "name": "Transfer",
      "type": "event"
    },
    {
      "stateMutability": "payable",
      "type": "fallback"
    },
    {
      "inputs": [],
      "name": "_collectionId",
      "outputs": [
        {
          "internalType": "uint256",
          "name": "",
          "type": "uint256"
        }
      ],
      "stateMutability": "view",
      "type": "function"
    },
    {
      "inputs": [],
      "name": "_paused",
      "outputs": [
        {
          "internalType": "bool",
          "name": "",
          "type": "bool"
        }
      ],
      "stateMutability": "view",
      "type": "function"
    },
    {
      "inputs": [
        {
          "internalType": "address",
          "name": "to",
          "type": "address"
        },
        {
          "internalType": "uint256",
          "name": "tokenId",
          "type": "uint256"
        }
      ],
      "name": "approve",
      "outputs": [],
      "stateMutability": "nonpayable",
      "type": "function"
    },
    {
      "inputs": [
        {
          "internalType": "address",
          "name": "owner",
          "type": "address"
        }
      ],
      "name": "balanceOf",
      "outputs": [
        {
          "internalType": "uint256",
          "name": "",
          "type": "uint256"
        }
      ],
      "stateMutability": "view",
      "type": "function"
    },
    {
      "inputs": [
        {
          "internalType": "string",
          "name": "a",
          "type": "string"
        },
        {
          "internalType": "string",
          "name": "b",
          "type": "string"
        }
      ],
      "name": "concatenate",
      "outputs": [
        {
          "internalType": "string",
          "name": "",
          "type": "string"
        }
      ],
      "stateMutability": "pure",
      "type": "function"
    },
    {
      "inputs": [
        {
          "internalType": "uint256",
          "name": "tokenId",
          "type": "uint256"
        }
      ],
      "name": "getApproved",
      "outputs": [
        {
          "internalType": "address",
          "name": "",
          "type": "address"
        }
      ],
      "stateMutability": "view",
      "type": "function"
    },
    {
      "inputs": [],
      "name": "getContractBalance",
      "outputs": [
        {
          "internalType": "uint256",
          "name": "",
          "type": "uint256"
        }
      ],
      "stateMutability": "view",
      "type": "function"
    },
    {
      "inputs": [
        {
          "internalType": "string",
          "name": "a2",
          "type": "string"
        },
        {
          "internalType": "uint256",
          "name": "b2",
          "type": "uint256"
        }
      ],
      "name": "getFinalString",
      "outputs": [
        {
          "internalType": "string",
          "name": "",
          "type": "string"
        }
      ],
      "stateMutability": "pure",
      "type": "function"
    },
    {
      "inputs": [],
      "name": "getOwnerDetails",
      "outputs": [
        {
          "components": [
            {
              "internalType": "bytes32",
              "name": "_ownerName",
              "type": "bytes32"
            },
            {
              "internalType": "address payable",
              "name": "_ownerAddress",
              "type": "address"
            },
            {
              "internalType": "uint256",
              "name": "_ownerAge",
              "type": "uint256"
            },
            {
              "internalType": "bytes32",
              "name": "_ownerBloodGroup",
              "type": "bytes32"
            },
            {
              "internalType": "bytes32",
              "name": "_ownerAllergies",
              "type": "bytes32"
            },
            {
              "internalType": "bytes32",
              "name": "_ownerMedication",
              "type": "bytes32"
            },
            {
              "internalType": "bytes32",
              "name": "_ownerAbout",
              "type": "bytes32"
            }
          ],
          "internalType": "struct TokenFactory.ownerDetailsType",
          "name": "",
          "type": "tuple"
        }
      ],
      "stateMutability": "view",
      "type": "function"
    },
    {
      "inputs": [
        {
          "internalType": "uint256",
          "name": "",
          "type": "uint256"
        }
      ],
      "name": "id_TokenAccessDetailMapping",
      "outputs": [
        {
          "internalType": "bool",
          "name": "_is_public",
          "type": "bool"
        },
        {
          "internalType": "uint256",
          "name": "_price",
          "type": "uint256"
        }
      ],
      "stateMutability": "view",
      "type": "function"
    },
    {
      "inputs": [
        {
          "internalType": "uint256",
          "name": "",
          "type": "uint256"
        }
      ],
      "name": "id_TokenDetailMapping",
      "outputs": [
        {
          "internalType": "address payable",
          "name": "_addressOfOwner",
          "type": "address"
        },
        {
          "internalType": "uint256",
          "name": "_tokenId",
          "type": "uint256"
        },
        {
          "internalType": "string",
          "name": "_dataDescription",
          "type": "string"
        },
        {
          "internalType": "string",
          "name": "_dataUrl",
          "type": "string"
        }
      ],
      "stateMutability": "view",
      "type": "function"
    },
    {
      "inputs": [
        {
          "internalType": "address",
          "name": "owner",
          "type": "address"
        },
        {
          "internalType": "address",
          "name": "operator",
          "type": "address"
        }
      ],
      "name": "isApprovedForAll",
      "outputs": [
        {
          "internalType": "bool",
          "name": "",
          "type": "bool"
        }
      ],
      "stateMutability": "view",
      "type": "function"
    },
    {
      "inputs": [
        {
          "internalType": "address[]",
          "name": "myArray",
          "type": "address[]"
        },
        {
          "internalType": "address",
          "name": "myAddress",
          "type": "address"
        }
      ],
      "name": "isInArray",
      "outputs": [
        {
          "internalType": "bool",
          "name": "",
          "type": "bool"
        }
      ],
      "stateMutability": "pure",
      "type": "function"
    },
    {
      "inputs": [
        {
          "internalType": "uint256",
          "name": "tokenId",
          "type": "uint256"
        },
        {
          "internalType": "address",
          "name": "userAddress",
          "type": "address"
        }
      ],
      "name": "isUserValid",
      "outputs": [
        {
          "internalType": "bool",
          "name": "",
          "type": "bool"
        }
      ],
      "stateMutability": "view",
      "type": "function"
    },
    {
      "inputs": [],
      "name": "maxTokenIds",
      "outputs": [
        {
          "internalType": "uint256",
          "name": "",
          "type": "uint256"
        }
      ],
      "stateMutability": "view",
      "type": "function"
    },
    {
      "inputs": [
        {
          "internalType": "string",
          "name": "dataDescription",
          "type": "string"
        },
        {
          "internalType": "string",
          "name": "dataUrl",
          "type": "string"
        }
      ],
      "name": "mint",
      "outputs": [
        {
          "internalType": "uint256",
          "name": "",
          "type": "uint256"
        }
      ],
      "stateMutability": "payable",
      "type": "function"
    },
    {
      "inputs": [],
      "name": "name",
      "outputs": [
        {
          "internalType": "string",
          "name": "",
          "type": "string"
        }
      ],
      "stateMutability": "view",
      "type": "function"
    },
    {
      "inputs": [],
      "name": "owner",
      "outputs": [
        {
          "internalType": "address",
          "name": "",
          "type": "address"
        }
      ],
      "stateMutability": "view",
      "type": "function"
    },
    {
      "inputs": [],
      "name": "ownerDetails",
      "outputs": [
        {
          "internalType": "bytes32",
          "name": "_ownerName",
          "type": "bytes32"
        },
        {
          "internalType": "address payable",
          "name": "_ownerAddress",
          "type": "address"
        },
        {
          "internalType": "uint256",
          "name": "_ownerAge",
          "type": "uint256"
        },
        {
          "internalType": "bytes32",
          "name": "_ownerBloodGroup",
          "type": "bytes32"
        },
        {
          "internalType": "bytes32",
          "name": "_ownerAllergies",
          "type": "bytes32"
        },
        {
          "internalType": "bytes32",
          "name": "_ownerMedication",
          "type": "bytes32"
        },
        {
          "internalType": "bytes32",
          "name": "_ownerAbout",
          "type": "bytes32"
        }
      ],
      "stateMutability": "view",
      "type": "function"
    },
    {
      "inputs": [
        {
          "internalType": "uint256",
          "name": "tokenId",
          "type": "uint256"
        }
      ],
      "name": "ownerOf",
      "outputs": [
        {
          "internalType": "address",
          "name": "",
          "type": "address"
        }
      ],
      "stateMutability": "view",
      "type": "function"
    },
    {
      "inputs": [],
      "name": "renounceOwnership",
      "outputs": [],
      "stateMutability": "nonpayable",
      "type": "function"
    },
    {
      "inputs": [
        {
          "internalType": "address",
          "name": "from",
          "type": "address"
        },
        {
          "internalType": "address",
          "name": "to",
          "type": "address"
        },
        {
          "internalType": "uint256",
          "name": "tokenId",
          "type": "uint256"
        }
      ],
      "name": "safeTransferFrom",
      "outputs": [],
      "stateMutability": "nonpayable",
      "type": "function"
    },
    {
      "inputs": [
        {
          "internalType": "address",
          "name": "from",
          "type": "address"
        },
        {
          "internalType": "address",
          "name": "to",
          "type": "address"
        },
        {
          "internalType": "uint256",
          "name": "tokenId",
          "type": "uint256"
        },
        {
          "internalType": "bytes",
          "name": "data",
          "type": "bytes"
        }
      ],
      "name": "safeTransferFrom",
      "outputs": [],
      "stateMutability": "nonpayable",
      "type": "function"
    },
    {
      "inputs": [
        {
          "internalType": "address",
          "name": "operator",
          "type": "address"
        },
        {
          "internalType": "bool",
          "name": "approved",
          "type": "bool"
        }
      ],
      "name": "setApprovalForAll",
      "outputs": [],
      "stateMutability": "nonpayable",
      "type": "function"
    },
    {
      "inputs": [
        {
          "internalType": "bool",
          "name": "val",
          "type": "bool"
        }
      ],
      "name": "setPaused",
      "outputs": [],
      "stateMutability": "nonpayable",
      "type": "function"
    },
    {
      "inputs": [
        {
          "internalType": "bytes4",
          "name": "interfaceId",
          "type": "bytes4"
        }
      ],
      "name": "supportsInterface",
      "outputs": [
        {
          "internalType": "bool",
          "name": "",
          "type": "bool"
        }
      ],
      "stateMutability": "view",
      "type": "function"
    },
    {
      "inputs": [],
      "name": "symbol",
      "outputs": [
        {
          "internalType": "string",
          "name": "",
          "type": "string"
        }
      ],
      "stateMutability": "view",
      "type": "function"
    },
    {
      "inputs": [
        {
          "internalType": "uint256",
          "name": "index",
          "type": "uint256"
        }
      ],
      "name": "tokenByIndex",
      "outputs": [
        {
          "internalType": "uint256",
          "name": "",
          "type": "uint256"
        }
      ],
      "stateMutability": "view",
      "type": "function"
    },
    {
      "inputs": [],
      "name": "tokenIds",
      "outputs": [
        {
          "internalType": "uint256",
          "name": "",
          "type": "uint256"
        }
      ],
      "stateMutability": "view",
      "type": "function"
    },
    {
      "inputs": [
        {
          "internalType": "address",
          "name": "owner",
          "type": "address"
        },
        {
          "internalType": "uint256",
          "name": "index",
          "type": "uint256"
        }
      ],
      "name": "tokenOfOwnerByIndex",
      "outputs": [
        {
          "internalType": "uint256",
          "name": "",
          "type": "uint256"
        }
      ],
      "stateMutability": "view",
      "type": "function"
    },
    {
      "inputs": [
        {
          "internalType": "uint256",
          "name": "tokenId",
          "type": "uint256"
        }
      ],
      "name": "tokenURI",
      "outputs": [
        {
          "internalType": "string",
          "name": "",
          "type": "string"
        }
      ],
      "stateMutability": "view",
      "type": "function"
    },
    {
      "inputs": [],
      "name": "totalSupply",
      "outputs": [
        {
          "internalType": "uint256",
          "name": "",
          "type": "uint256"
        }
      ],
      "stateMutability": "view",
      "type": "function"
    },
    {
      "inputs": [
        {
          "internalType": "address",
          "name": "from",
          "type": "address"
        },
        {
          "internalType": "address",
          "name": "to",
          "type": "address"
        },
        {
          "internalType": "uint256",
          "name": "tokenId",
          "type": "uint256"
        }
      ],
      "name": "transferFrom",
      "outputs": [],
      "stateMutability": "nonpayable",
      "type": "function"
    },
    {
      "inputs": [
        {
          "internalType": "address",
          "name": "newOwner",
          "type": "address"
        }
      ],
      "name": "transferOwnership",
      "outputs": [],
      "stateMutability": "nonpayable",
      "type": "function"
    },
    {
      "stateMutability": "payable",
      "type": "receive"
    }
  ],
  "bytecode": "0x608060405260646016553480156200001657600080fd5b50604051620057d8380380620057d883398181016040528101906200003c9190620007c3565b620000836040518060400160405280600d81526020017f546f6b656e20466163746f727900000000000000000000000000000000000000815250826200020f60201b60201c565b620000ca6040518060400160405280600281526020017f5446000000000000000000000000000000000000000000000000000000000000815250836200020f60201b60201c565b8160009081620000db919062000b12565b508060019081620000ed919062000b12565b50505062000110620001046200024660201b60201c565b6200024e60201b60201c565b88600c81905550806014819055506040518060e001604052808981526020018873ffffffffffffffffffffffffffffffffffffffff16815260200187815260200186815260200185815260200184815260200183815250600d6000820151816000015560208201518160010160006101000a81548173ffffffffffffffffffffffffffffffffffffffff021916908373ffffffffffffffffffffffffffffffffffffffff16021790555060408201518160020155606082015181600301556080820151816004015560a0820151816005015560c0820151816006015590505062000200876200031460201b60201c565b50505050505050505062000e36565b606060006200022983620003aa60201b620018b81760201c565b90506200023d84826200048e60201b60201c565b91505092915050565b600033905090565b6000600a60009054906101000a900473ffffffffffffffffffffffffffffffffffffffff16905081600a60006101000a81548173ffffffffffffffffffffffffffffffffffffffff021916908373ffffffffffffffffffffffffffffffffffffffff1602179055508173ffffffffffffffffffffffffffffffffffffffff168173ffffffffffffffffffffffffffffffffffffffff167f8be0079c531659141344cd1fd0a4f28419497f9722a3daafe3b4186f6b6457e060405160405180910390a35050565b62000324620004bc60201b60201c565b600073ffffffffffffffffffffffffffffffffffffffff168173ffffffffffffffffffffffffffffffffffffffff160362000396576040517f08c379a00000000000000000000000000000000000000000000000000000000081526004016200038d9062000c80565b60405180910390fd5b620003a7816200024e60201b60201c565b50565b606060006001620003c6846200054d60201b620019861760201c565b01905060008167ffffffffffffffff811115620003e857620003e7620008ad565b5b6040519080825280601f01601f1916602001820160405280156200041b5781602001600182028036833780820191505090505b509050600082602001820190505b60011562000483578080600190039150507f3031323334353637383961626364656600000000000000000000000000000000600a86061a8153600a858162000476576200047562000ca2565b5b0494506000850362000429575b819350505050919050565b60608282604051602001620004a592919062000d8f565b604051602081830303815290604052905092915050565b620004cc6200024660201b60201c565b73ffffffffffffffffffffffffffffffffffffffff16620004f2620006b960201b60201c565b73ffffffffffffffffffffffffffffffffffffffff16146200054b576040517f08c379a0000000000000000000000000000000000000000000000000000000008152600401620005429062000e14565b60405180910390fd5b565b600080600090507a184f03e93ff9f4daa797ed6e38ed64bf6a1f0100000000000000008310620005af577a184f03e93ff9f4daa797ed6e38ed64bf6a1f0100000000000000008381620005a557620005a462000ca2565b5b0492506040810190505b6d04ee2d6d415b85acef81000000008310620005f0576d04ee2d6d415b85acef81000000008381620005e657620005e562000ca2565b5b0492506020810190505b662386f26fc1000083106200062357662386f26fc10000838162000619576200061862000ca2565b5b0492506010810190505b6305f5e100831062000650576305f5e100838162000646576200064562000ca2565b5b0492506008810190505b6127108310620006795761271083816200066f576200066e62000ca2565b5b0492506004810190505b60648310620006a0576064838162000696576200069562000ca2565b5b0492506002810190505b600a8310620006b0576001810190505b80915050919050565b6000600a60009054906101000a900473ffffffffffffffffffffffffffffffffffffffff16905090565b600080fd5b6000819050919050565b620006fd81620006e8565b81146200070957600080fd5b50565b6000815190506200071d81620006f2565b92915050565b600073ffffffffffffffffffffffffffffffffffffffff82169050919050565b6000620007508262000723565b9050919050565b620007628162000743565b81146200076e57600080fd5b50565b600081519050620007828162000757565b92915050565b6000819050919050565b6200079d8162000788565b8114620007a957600080fd5b50565b600081519050620007bd8162000792565b92915050565b60008060008060008060008060006101208a8c031215620007e957620007e8620006e3565b5b6000620007f98c828d016200070c565b99505060206200080c8c828d016200070c565b98505060406200081f8c828d0162000771565b9750506060620008328c828d01620007ac565b9650506080620008458c828d016200070c565b95505060a0620008588c828d016200070c565b94505060c06200086b8c828d016200070c565b93505060e06200087e8c828d016200070c565b925050610100620008928c828d01620007ac565b9150509295985092959850929598565b600081519050919050565b7f4e487b7100000000000000000000000000000000000000000000000000000000600052604160045260246000fd5b7f4e487b7100000000000000000000000000000000000000000000000000000000600052602260045260246000fd5b600060028204905060018216806200092457607f821691505b6020821081036200093a5762000939620008dc565b5b50919050565b60008190508160005260206000209050919050565b60006020601f8301049050919050565b600082821b905092915050565b600060088302620009a47fffffffffffffffffffffffffffffffffffffffffffffffffffffffffffffffff8262000965565b620009b0868362000965565b95508019841693508086168417925050509392505050565b6000819050919050565b6000620009f3620009ed620009e78462000788565b620009c8565b62000788565b9050919050565b6000819050919050565b62000a0f83620009d2565b62000a2762000a1e82620009fa565b84845462000972565b825550505050565b600090565b62000a3e62000a2f565b62000a4b81848462000a04565b505050565b5b8181101562000a735762000a6760008262000a34565b60018101905062000a51565b5050565b601f82111562000ac25762000a8c8162000940565b62000a978462000955565b8101602085101562000aa7578190505b62000abf62000ab68562000955565b83018262000a50565b50505b505050565b600082821c905092915050565b600062000ae76000198460080262000ac7565b1980831691505092915050565b600062000b02838362000ad4565b9150826002028217905092915050565b62000b1d82620008a2565b67ffffffffffffffff81111562000b395762000b38620008ad565b5b62000b4582546200090b565b62000b5282828562000a77565b600060209050601f83116001811462000b8a576000841562000b75578287015190505b62000b81858262000af4565b86555062000bf1565b601f19841662000b9a8662000940565b60005b8281101562000bc45784890151825560018201915060208501945060208101905062000b9d565b8683101562000be4578489015162000be0601f89168262000ad4565b8355505b6001600288020188555050505b505050505050565b600082825260208201905092915050565b7f4f776e61626c653a206e6577206f776e657220697320746865207a65726f206160008201527f6464726573730000000000000000000000000000000000000000000000000000602082015250565b600062000c6860268362000bf9565b915062000c758262000c0a565b604082019050919050565b6000602082019050818103600083015262000c9b8162000c59565b9050919050565b7f4e487b7100000000000000000000000000000000000000000000000000000000600052601260045260246000fd5b600081905092915050565b60005b8381101562000cfc57808201518184015260208101905062000cdf565b60008484015250505050565b600062000d1582620008a2565b62000d21818562000cd1565b935062000d3381856020860162000cdc565b80840191505092915050565b7f2000000000000000000000000000000000000000000000000000000000000000600082015250565b600062000d7760018362000cd1565b915062000d848262000d3f565b600182019050919050565b600062000d9d828562000d08565b915062000daa8262000d68565b915062000db8828462000d08565b91508190509392505050565b7f4f776e61626c653a2063616c6c6572206973206e6f7420746865206f776e6572600082015250565b600062000dfc60208362000bf9565b915062000e098262000dc4565b602082019050919050565b6000602082019050818103600083015262000e2f8162000ded565b9050919050565b6149928062000e466000396000f3fe6080604052600436106101fd5760003560e01c806370a082311161010d57806395d89b41116100a0578063c87b56dd1161006f578063c87b56dd14610787578063ca52f2d8146107c4578063e985e9c514610801578063ef725d811461083e578063f2fde38b1461087c57610204565b806395d89b41146106d9578063a22cb46514610704578063b3cee1311461072d578063b88d4fde1461075e57610204565b806380b2284f116100dc57806380b2284f146106165780638296a2e8146106535780638aa0fdad1461067e5780638da5cb5b146106ae57610204565b806370a082311461055a578063714cff5614610597578063715018a6146105c25780637df43b82146105d957610204565b806323b872dd1161019057806342842e0e1161015f57806342842e0e146104615780634f6ccce71461048a5780635f769621146104c75780636352211e146104f25780636f9fb98a1461052f57610204565b806323b872dd14610393578063266001d3146103bc5780632f745c59146103f95780633c4717251461043657610204565b806312834c97116101cc57806312834c97146102d457806316c38b3c1461031457806316c61ccc1461033d57806318160ddd1461036857610204565b806301ffc9a71461020657806306fdde0314610243578063081812fc1461026e578063095ea7b3146102ab57610204565b3661020457005b005b34801561021257600080fd5b5061022d60048036038101906102289190612fa5565b6108a5565b60405161023a9190612fed565b60405180910390f35b34801561024f57600080fd5b5061025861091f565b6040516102659190613098565b60405180910390f35b34801561027a57600080fd5b50610295600480360381019061029091906130f0565b6109b1565b6040516102a2919061315e565b60405180910390f35b3480156102b757600080fd5b506102d260048036038101906102cd91906131a5565b6109f7565b005b3480156102e057600080fd5b506102fb60048036038101906102f691906130f0565b610b0e565b60405161030b9493929190613215565b60405180910390f35b34801561032057600080fd5b5061033b60048036038101906103369190613294565b610c6e565b005b34801561034957600080fd5b50610352610c93565b60405161035f9190612fed565b60405180910390f35b34801561037457600080fd5b5061037d610ca6565b60405161038a91906132c1565b60405180910390f35b34801561039f57600080fd5b506103ba60048036038101906103b591906132dc565b610cb3565b005b3480156103c857600080fd5b506103e360048036038101906103de9190613464565b610d13565b6040516103f09190613098565b60405180910390f35b34801561040557600080fd5b50610420600480360381019061041b91906131a5565b610d3f565b60405161042d91906132c1565b60405180910390f35b34801561044257600080fd5b5061044b610de4565b60405161045891906135a1565b60405180910390f35b34801561046d57600080fd5b50610488600480360381019061048391906132dc565b610e90565b005b34801561049657600080fd5b506104b160048036038101906104ac91906130f0565b610eb0565b6040516104be91906132c1565b60405180910390f35b3480156104d357600080fd5b506104dc610f21565b6040516104e991906132c1565b60405180910390f35b3480156104fe57600080fd5b50610519600480360381019061051491906130f0565b610f27565b604051610526919061315e565b60405180910390f35b34801561053b57600080fd5b50610544610fad565b60405161055191906132c1565b60405180910390f35b34801561056657600080fd5b50610581600480360381019061057c91906135bc565b610fbd565b60405161058e91906132c1565b60405180910390f35b3480156105a357600080fd5b506105ac611074565b6040516105b991906132c1565b60405180910390f35b3480156105ce57600080fd5b506105d761107a565b005b3480156105e557600080fd5b5061060060048036038101906105fb91906135e9565b61108e565b60405161060d9190613098565b60405180910390f35b34801561062257600080fd5b5061063d6004803603810190610638919061370d565b6110b0565b60405161064a9190612fed565b60405180910390f35b34801561065f57600080fd5b50610668611137565b60405161067591906132c1565b60405180910390f35b61069860048036038101906106939190613464565b61113d565b6040516106a591906132c1565b60405180910390f35b3480156106ba57600080fd5b506106c3611431565b6040516106d0919061315e565b60405180910390f35b3480156106e557600080fd5b506106ee61145b565b6040516106fb9190613098565b60405180910390f35b34801561071057600080fd5b5061072b60048036038101906107269190613769565b6114ed565b005b34801561073957600080fd5b50610742611503565b60405161075597969594939291906137b8565b60405180910390f35b34801561076a57600080fd5b50610785600480360381019061078091906138c8565b611553565b005b34801561079357600080fd5b506107ae60048036038101906107a991906130f0565b6115b5565b6040516107bb9190613098565b60405180910390f35b3480156107d057600080fd5b506107eb60048036038101906107e6919061394b565b61161d565b6040516107f89190612fed565b60405180910390f35b34801561080d57600080fd5b506108286004803603810190610823919061398b565b611770565b6040516108359190612fed565b60405180910390f35b34801561084a57600080fd5b50610865600480360381019061086091906130f0565b611804565b6040516108739291906139cb565b60405180910390f35b34801561088857600080fd5b506108a3600480360381019061089e91906135bc565b611835565b005b60007f780e9d63000000000000000000000000000000000000000000000000000000007bffffffffffffffffffffffffffffffffffffffffffffffffffffffff1916827bffffffffffffffffffffffffffffffffffffffffffffffffffffffff19161480610918575061091782611ad9565b5b9050919050565b60606000805461092e90613a23565b80601f016020809104026020016040519081016040528092919081815260200182805461095a90613a23565b80156109a75780601f1061097c576101008083540402835291602001916109a7565b820191906000526020600020905b81548152906001019060200180831161098a57829003601f168201915b5050505050905090565b60006109bc82611bbb565b6004600083815260200190815260200160002060009054906101000a900473ffffffffffffffffffffffffffffffffffffffff169050919050565b6000610a0282610f27565b90508073ffffffffffffffffffffffffffffffffffffffff168373ffffffffffffffffffffffffffffffffffffffff1603610a72576040517f08c379a0000000000000000000000000000000000000000000000000000000008152600401610a6990613ac6565b60405180910390fd5b8073ffffffffffffffffffffffffffffffffffffffff16610a91611c06565b73ffffffffffffffffffffffffffffffffffffffff161480610ac05750610abf81610aba611c06565b611770565b5b610aff576040517f08c379a0000000000000000000000000000000000000000000000000000000008152600401610af690613b58565b60405180910390fd5b610b098383611c0e565b505050565b60186020528060005260406000206000915090508060000160009054906101000a900473ffffffffffffffffffffffffffffffffffffffff1690806001015490806002018054610b5d90613a23565b80601f0160208091040260200160405190810160405280929190818152602001828054610b8990613a23565b8015610bd65780601f10610bab57610100808354040283529160200191610bd6565b820191906000526020600020905b815481529060010190602001808311610bb957829003601f168201915b505050505090806003018054610beb90613a23565b80601f0160208091040260200160405190810160405280929190818152602001828054610c1790613a23565b8015610c645780601f10610c3957610100808354040283529160200191610c64565b820191906000526020600020905b815481529060010190602001808311610c4757829003601f168201915b5050505050905084565b610c76611cc7565b80601560006101000a81548160ff02191690831515021790555050565b601560009054906101000a900460ff1681565b6000600880549050905090565b610cc4610cbe611c06565b82611d45565b610d03576040517f08c379a0000000000000000000000000000000000000000000000000000000008152600401610cfa90613bea565b60405180910390fd5b610d0e838383611dda565b505050565b60608282604051602001610d28929190613c92565b604051602081830303815290604052905092915050565b6000610d4a83610fbd565b8210610d8b576040517f08c379a0000000000000000000000000000000000000000000000000000000008152600401610d8290613d33565b60405180910390fd5b600660008473ffffffffffffffffffffffffffffffffffffffff1673ffffffffffffffffffffffffffffffffffffffff168152602001908152602001600020600083815260200190815260200160002054905092915050565b610dec612e30565b600d6040518060e0016040529081600082015481526020016001820160009054906101000a900473ffffffffffffffffffffffffffffffffffffffff1673ffffffffffffffffffffffffffffffffffffffff1673ffffffffffffffffffffffffffffffffffffffff16815260200160028201548152602001600382015481526020016004820154815260200160058201548152602001600682015481525050905090565b610eab83838360405180602001604052806000815250611553565b505050565b6000610eba610ca6565b8210610efb576040517f08c379a0000000000000000000000000000000000000000000000000000000008152600401610ef290613dc5565b60405180910390fd5b60088281548110610f0f57610f0e613de5565b5b90600052602060002001549050919050565b60165481565b600080610f33836120d3565b9050600073ffffffffffffffffffffffffffffffffffffffff168173ffffffffffffffffffffffffffffffffffffffff1603610fa4576040517f08c379a0000000000000000000000000000000000000000000000000000000008152600401610f9b90613e60565b60405180910390fd5b80915050919050565b6000610fb7611cc7565b47905090565b60008073ffffffffffffffffffffffffffffffffffffffff168273ffffffffffffffffffffffffffffffffffffffff160361102d576040517f08c379a000000000000000000000000000000000000000000000000000000000815260040161102490613ef2565b60405180910390fd5b600360008373ffffffffffffffffffffffffffffffffffffffff1673ffffffffffffffffffffffffffffffffffffffff168152602001908152602001600020549050919050565b60175481565b611082611cc7565b61108c6000612110565b565b6060600061109b836118b8565b90506110a78482610d13565b91505092915050565b600080600090505b835181101561112b578273ffffffffffffffffffffffffffffffffffffffff168482815181106110eb576110ea613de5565b5b602002602001015173ffffffffffffffffffffffffffffffffffffffff1603611118576001915050611131565b808061112390613f41565b9150506110b8565b50600090505b92915050565b60145481565b6000601560009054906101000a900460ff161561118f576040517f08c379a000000000000000000000000000000000000000000000000000000000815260040161118690613fd5565b60405180910390fd5b611197611cc7565b600d60010160009054906101000a900473ffffffffffffffffffffffffffffffffffffffff1673ffffffffffffffffffffffffffffffffffffffff163373ffffffffffffffffffffffffffffffffffffffff16146111f457600080fd5b6016546017541061123a576040517f08c379a000000000000000000000000000000000000000000000000000000000815260040161123190614067565b60405180910390fd5b60016017600082825461124d9190614087565b92505081905550611260336017546121d6565b60006040518060800160405280600d60010160009054906101000a900473ffffffffffffffffffffffffffffffffffffffff1673ffffffffffffffffffffffffffffffffffffffff16815260200160175481526020018581526020018481525090506000604051806060016040528060001515815260200160008152602001600067ffffffffffffffff8111156112fa576112f9613339565b5b6040519080825280602002602001820160405280156113285781602001602082028036833780820191505090505b5081525090508160186000601754815260200190815260200160002060008201518160000160006101000a81548173ffffffffffffffffffffffffffffffffffffffff021916908373ffffffffffffffffffffffffffffffffffffffff1602179055506020820151816001015560408201518160020190816113aa9190614267565b5060608201518160030190816113c09190614267565b509050508060196000601754815260200190815260200160002060008201518160000160006101000a81548160ff021916908315150217905550602082015181600101556040820151816002019080519060200190611420929190612e92565b509050506017549250505092915050565b6000600a60009054906101000a900473ffffffffffffffffffffffffffffffffffffffff16905090565b60606001805461146a90613a23565b80601f016020809104026020016040519081016040528092919081815260200182805461149690613a23565b80156114e35780601f106114b8576101008083540402835291602001916114e3565b820191906000526020600020905b8154815290600101906020018083116114c657829003601f168201915b5050505050905090565b6114ff6114f8611c06565b83836121f4565b5050565b600d8060000154908060010160009054906101000a900473ffffffffffffffffffffffffffffffffffffffff16908060020154908060030154908060040154908060050154908060060154905087565b61156461155e611c06565b83611d45565b6115a3576040517f08c379a000000000000000000000000000000000000000000000000000000000815260040161159a90613bea565b60405180910390fd5b6115af84848484612360565b50505050565b60606115c082611bbb565b60006115ca6123bc565b905060008151116115ea5760405180602001604052806000815250611615565b806115f4846118b8565b604051602001611605929190614339565b6040516020818303038152906040525b915050919050565b60008173ffffffffffffffffffffffffffffffffffffffff166018600085815260200190815260200160002060000160009054906101000a900473ffffffffffffffffffffffffffffffffffffffff1673ffffffffffffffffffffffffffffffffffffffff1603611691576001905061176a565b6019600084815260200190815260200160002060000160009054906101000a900460ff16156116c3576001905061176a565b6117676019600085815260200190815260200160002060020180548060200260200160405190810160405280929190818152602001828054801561175c57602002820191906000526020600020905b8160009054906101000a900473ffffffffffffffffffffffffffffffffffffffff1673ffffffffffffffffffffffffffffffffffffffff1681526020019060010190808311611712575b5050505050836110b0565b90505b92915050565b6000600560008473ffffffffffffffffffffffffffffffffffffffff1673ffffffffffffffffffffffffffffffffffffffff16815260200190815260200160002060008373ffffffffffffffffffffffffffffffffffffffff1673ffffffffffffffffffffffffffffffffffffffff16815260200190815260200160002060009054906101000a900460ff16905092915050565b60196020528060005260406000206000915090508060000160009054906101000a900460ff16908060010154905082565b61183d611cc7565b600073ffffffffffffffffffffffffffffffffffffffff168173ffffffffffffffffffffffffffffffffffffffff16036118ac576040517f08c379a00000000000000000000000000000000000000000000000000000000081526004016118a3906143cf565b60405180910390fd5b6118b581612110565b50565b6060600060016118c784611986565b01905060008167ffffffffffffffff8111156118e6576118e5613339565b5b6040519080825280601f01601f1916602001820160405280156119185781602001600182028036833780820191505090505b509050600082602001820190505b60011561197b578080600190039150507f3031323334353637383961626364656600000000000000000000000000000000600a86061a8153600a858161196f5761196e6143ef565b5b04945060008503611926575b819350505050919050565b600080600090507a184f03e93ff9f4daa797ed6e38ed64bf6a1f01000000000000000083106119e4577a184f03e93ff9f4daa797ed6e38ed64bf6a1f01000000000000000083816119da576119d96143ef565b5b0492506040810190505b6d04ee2d6d415b85acef81000000008310611a21576d04ee2d6d415b85acef81000000008381611a1757611a166143ef565b5b0492506020810190505b662386f26fc100008310611a5057662386f26fc100008381611a4657611a456143ef565b5b0492506010810190505b6305f5e1008310611a79576305f5e1008381611a6f57611a6e6143ef565b5b0492506008810190505b6127108310611a9e576127108381611a9457611a936143ef565b5b0492506004810190505b60648310611ac15760648381611ab757611ab66143ef565b5b0492506002810190505b600a8310611ad0576001810190505b80915050919050565b60007f80ac58cd000000000000000000000000000000000000000000000000000000007bffffffffffffffffffffffffffffffffffffffffffffffffffffffff1916827bffffffffffffffffffffffffffffffffffffffffffffffffffffffff19161480611ba457507f5b5e139f000000000000000000000000000000000000000000000000000000007bffffffffffffffffffffffffffffffffffffffffffffffffffffffff1916827bffffffffffffffffffffffffffffffffffffffffffffffffffffffff1916145b80611bb45750611bb3826123d3565b5b9050919050565b611bc48161243d565b611c03576040517f08c379a0000000000000000000000000000000000000000000000000000000008152600401611bfa90613e60565b60405180910390fd5b50565b600033905090565b816004600083815260200190815260200160002060006101000a81548173ffffffffffffffffffffffffffffffffffffffff021916908373ffffffffffffffffffffffffffffffffffffffff160217905550808273ffffffffffffffffffffffffffffffffffffffff16611c8183610f27565b73ffffffffffffffffffffffffffffffffffffffff167f8c5be1e5ebec7d5bd14f71427d1e84f3dd0314c0f7b2291e5b200ac8c7c3b92560405160405180910390a45050565b611ccf611c06565b73ffffffffffffffffffffffffffffffffffffffff16611ced611431565b73ffffffffffffffffffffffffffffffffffffffff1614611d43576040517f08c379a0000000000000000000000000000000000000000000000000000000008152600401611d3a9061446a565b60405180910390fd5b565b600080611d5183610f27565b90508073ffffffffffffffffffffffffffffffffffffffff168473ffffffffffffffffffffffffffffffffffffffff161480611d935750611d928185611770565b5b80611dd157508373ffffffffffffffffffffffffffffffffffffffff16611db9846109b1565b73ffffffffffffffffffffffffffffffffffffffff16145b91505092915050565b8273ffffffffffffffffffffffffffffffffffffffff16611dfa82610f27565b73ffffffffffffffffffffffffffffffffffffffff1614611e50576040517f08c379a0000000000000000000000000000000000000000000000000000000008152600401611e47906144fc565b60405180910390fd5b600073ffffffffffffffffffffffffffffffffffffffff168273ffffffffffffffffffffffffffffffffffffffff1603611ebf576040517f08c379a0000000000000000000000000000000000000000000000000000000008152600401611eb69061458e565b60405180910390fd5b611ecc838383600161247e565b8273ffffffffffffffffffffffffffffffffffffffff16611eec82610f27565b73ffffffffffffffffffffffffffffffffffffffff1614611f42576040517f08c379a0000000000000000000000000000000000000000000000000000000008152600401611f39906144fc565b60405180910390fd5b6004600082815260200190815260200160002060006101000a81549073ffffffffffffffffffffffffffffffffffffffff02191690556001600360008573ffffffffffffffffffffffffffffffffffffffff1673ffffffffffffffffffffffffffffffffffffffff168152602001908152602001600020600082825403925050819055506001600360008473ffffffffffffffffffffffffffffffffffffffff1673ffffffffffffffffffffffffffffffffffffffff16815260200190815260200160002060008282540192505081905550816002600083815260200190815260200160002060006101000a81548173ffffffffffffffffffffffffffffffffffffffff021916908373ffffffffffffffffffffffffffffffffffffffff160217905550808273ffffffffffffffffffffffffffffffffffffffff168473ffffffffffffffffffffffffffffffffffffffff167fddf252ad1be2c89b69c2b068fc378daa952ba7f163c4a11628f55a4df523b3ef60405160405180910390a46120ce83838360016125dc565b505050565b60006002600083815260200190815260200160002060009054906101000a900473ffffffffffffffffffffffffffffffffffffffff169050919050565b6000600a60009054906101000a900473ffffffffffffffffffffffffffffffffffffffff16905081600a60006101000a81548173ffffffffffffffffffffffffffffffffffffffff021916908373ffffffffffffffffffffffffffffffffffffffff1602179055508173ffffffffffffffffffffffffffffffffffffffff168173ffffffffffffffffffffffffffffffffffffffff167f8be0079c531659141344cd1fd0a4f28419497f9722a3daafe3b4186f6b6457e060405160405180910390a35050565b6121f08282604051806020016040528060008152506125e2565b5050565b8173ffffffffffffffffffffffffffffffffffffffff168373ffffffffffffffffffffffffffffffffffffffff1603612262576040517f08c379a0000000000000000000000000000000000000000000000000000000008152600401612259906145fa565b60405180910390fd5b80600560008573ffffffffffffffffffffffffffffffffffffffff1673ffffffffffffffffffffffffffffffffffffffff16815260200190815260200160002060008473ffffffffffffffffffffffffffffffffffffffff1673ffffffffffffffffffffffffffffffffffffffff16815260200190815260200160002060006101000a81548160ff0219169083151502179055508173ffffffffffffffffffffffffffffffffffffffff168373ffffffffffffffffffffffffffffffffffffffff167f17307eab39ab6107e8899845ad3d59bd9653f200f220920489ca2b5937696c31836040516123539190612fed565b60405180910390a3505050565b61236b848484611dda565b6123778484848461263d565b6123b6576040517f08c379a00000000000000000000000000000000000000000000000000000000081526004016123ad9061468c565b60405180910390fd5b50505050565b606060405180602001604052806000815250905090565b60007f01ffc9a7000000000000000000000000000000000000000000000000000000007bffffffffffffffffffffffffffffffffffffffffffffffffffffffff1916827bffffffffffffffffffffffffffffffffffffffffffffffffffffffff1916149050919050565b60008073ffffffffffffffffffffffffffffffffffffffff1661245f836120d3565b73ffffffffffffffffffffffffffffffffffffffff1614159050919050565b61248a848484846127c4565b60018111156124ce576040517f08c379a00000000000000000000000000000000000000000000000000000000081526004016124c59061471e565b60405180910390fd5b6000829050600073ffffffffffffffffffffffffffffffffffffffff168573ffffffffffffffffffffffffffffffffffffffff160361251557612510816128ea565b612554565b8373ffffffffffffffffffffffffffffffffffffffff168573ffffffffffffffffffffffffffffffffffffffff1614612553576125528582612933565b5b5b600073ffffffffffffffffffffffffffffffffffffffff168473ffffffffffffffffffffffffffffffffffffffff16036125965761259181612aa0565b6125d5565b8473ffffffffffffffffffffffffffffffffffffffff168473ffffffffffffffffffffffffffffffffffffffff16146125d4576125d38482612b71565b5b5b5050505050565b50505050565b6125ec8383612bf0565b6125f9600084848461263d565b612638576040517f08c379a000000000000000000000000000000000000000000000000000000000815260040161262f9061468c565b60405180910390fd5b505050565b600061265e8473ffffffffffffffffffffffffffffffffffffffff16612e0d565b156127b7578373ffffffffffffffffffffffffffffffffffffffff1663150b7a02612687611c06565b8786866040518563ffffffff1660e01b81526004016126a99493929190614793565b6020604051808303816000875af19250505080156126e557506040513d601f19601f820116820180604052508101906126e291906147f4565b60015b612767573d8060008114612715576040519150601f19603f3d011682016040523d82523d6000602084013e61271a565b606091505b50600081510361275f576040517f08c379a00000000000000000000000000000000000000000000000000000000081526004016127569061468c565b60405180910390fd5b805181602001fd5b63150b7a0260e01b7bffffffffffffffffffffffffffffffffffffffffffffffffffffffff1916817bffffffffffffffffffffffffffffffffffffffffffffffffffffffff1916149150506127bc565b600190505b949350505050565b60018111156128e457600073ffffffffffffffffffffffffffffffffffffffff168473ffffffffffffffffffffffffffffffffffffffff16146128585780600360008673ffffffffffffffffffffffffffffffffffffffff1673ffffffffffffffffffffffffffffffffffffffff16815260200190815260200160002060008282546128509190614821565b925050819055505b600073ffffffffffffffffffffffffffffffffffffffff168373ffffffffffffffffffffffffffffffffffffffff16146128e35780600360008573ffffffffffffffffffffffffffffffffffffffff1673ffffffffffffffffffffffffffffffffffffffff16815260200190815260200160002060008282546128db9190614087565b925050819055505b5b50505050565b6008805490506009600083815260200190815260200160002081905550600881908060018154018082558091505060019003906000526020600020016000909190919091505550565b6000600161294084610fbd565b61294a9190614821565b9050600060076000848152602001908152602001600020549050818114612a2f576000600660008673ffffffffffffffffffffffffffffffffffffffff1673ffffffffffffffffffffffffffffffffffffffff168152602001908152602001600020600084815260200190815260200160002054905080600660008773ffffffffffffffffffffffffffffffffffffffff1673ffffffffffffffffffffffffffffffffffffffff168152602001908152602001600020600084815260200190815260200160002081905550816007600083815260200190815260200160002081905550505b6007600084815260200190815260200160002060009055600660008573ffffffffffffffffffffffffffffffffffffffff1673ffffffffffffffffffffffffffffffffffffffff16815260200190815260200160002060008381526020019081526020016000206000905550505050565b60006001600880549050612ab49190614821565b9050600060096000848152602001908152602001600020549050600060088381548110612ae457612ae3613de5565b5b906000526020600020015490508060088381548110612b0657612b05613de5565b5b906000526020600020018190555081600960008381526020019081526020016000208190555060096000858152602001908152602001600020600090556008805480612b5557612b54614855565b5b6001900381819060005260206000200160009055905550505050565b6000612b7c83610fbd565b905081600660008573ffffffffffffffffffffffffffffffffffffffff1673ffffffffffffffffffffffffffffffffffffffff168152602001908152602001600020600083815260200190815260200160002081905550806007600084815260200190815260200160002081905550505050565b600073ffffffffffffffffffffffffffffffffffffffff168273ffffffffffffffffffffffffffffffffffffffff1603612c5f576040517f08c379a0000000000000000000000000000000000000000000000000000000008152600401612c56906148d0565b60405180910390fd5b612c688161243d565b15612ca8576040517f08c379a0000000000000000000000000000000000000000000000000000000008152600401612c9f9061493c565b60405180910390fd5b612cb660008383600161247e565b612cbf8161243d565b15612cff576040517f08c379a0000000000000000000000000000000000000000000000000000000008152600401612cf69061493c565b60405180910390fd5b6001600360008473ffffffffffffffffffffffffffffffffffffffff1673ffffffffffffffffffffffffffffffffffffffff16815260200190815260200160002060008282540192505081905550816002600083815260200190815260200160002060006101000a81548173ffffffffffffffffffffffffffffffffffffffff021916908373ffffffffffffffffffffffffffffffffffffffff160217905550808273ffffffffffffffffffffffffffffffffffffffff16600073ffffffffffffffffffffffffffffffffffffffff167fddf252ad1be2c89b69c2b068fc378daa952ba7f163c4a11628f55a4df523b3ef60405160405180910390a4612e096000838360016125dc565b5050565b6000808273ffffffffffffffffffffffffffffffffffffffff163b119050919050565b6040518060e0016040528060008019168152602001600073ffffffffffffffffffffffffffffffffffffffff16815260200160008152602001600080191681526020016000801916815260200160008019168152602001600080191681525090565b828054828255906000526020600020908101928215612f0b579160200282015b82811115612f0a5782518260006101000a81548173ffffffffffffffffffffffffffffffffffffffff021916908373ffffffffffffffffffffffffffffffffffffffff16021790555091602001919060010190612eb2565b5b509050612f189190612f1c565b5090565b5b80821115612f35576000816000905550600101612f1d565b5090565b6000604051905090565b600080fd5b600080fd5b60007fffffffff0000000000000000000000000000000000000000000000000000000082169050919050565b612f8281612f4d565b8114612f8d57600080fd5b50565b600081359050612f9f81612f79565b92915050565b600060208284031215612fbb57612fba612f43565b5b6000612fc984828501612f90565b91505092915050565b60008115159050919050565b612fe781612fd2565b82525050565b60006020820190506130026000830184612fde565b92915050565b600081519050919050565b600082825260208201905092915050565b60005b83811015613042578082015181840152602081019050613027565b60008484015250505050565b6000601f19601f8301169050919050565b600061306a82613008565b6130748185613013565b9350613084818560208601613024565b61308d8161304e565b840191505092915050565b600060208201905081810360008301526130b2818461305f565b905092915050565b6000819050919050565b6130cd816130ba565b81146130d857600080fd5b50565b6000813590506130ea816130c4565b92915050565b60006020828403121561310657613105612f43565b5b6000613114848285016130db565b91505092915050565b600073ffffffffffffffffffffffffffffffffffffffff82169050919050565b60006131488261311d565b9050919050565b6131588161313d565b82525050565b6000602082019050613173600083018461314f565b92915050565b6131828161313d565b811461318d57600080fd5b50565b60008135905061319f81613179565b92915050565b600080604083850312156131bc576131bb612f43565b5b60006131ca85828601613190565b92505060206131db858286016130db565b9150509250929050565b60006131f08261311d565b9050919050565b613200816131e5565b82525050565b61320f816130ba565b82525050565b600060808201905061322a60008301876131f7565b6132376020830186613206565b8181036040830152613249818561305f565b9050818103606083015261325d818461305f565b905095945050505050565b61327181612fd2565b811461327c57600080fd5b50565b60008135905061328e81613268565b92915050565b6000602082840312156132aa576132a9612f43565b5b60006132b88482850161327f565b91505092915050565b60006020820190506132d66000830184613206565b92915050565b6000806000606084860312156132f5576132f4612f43565b5b600061330386828701613190565b935050602061331486828701613190565b9250506040613325868287016130db565b9150509250925092565b600080fd5b600080fd5b7f4e487b7100000000000000000000000000000000000000000000000000000000600052604160045260246000fd5b6133718261304e565b810181811067ffffffffffffffff821117156133905761338f613339565b5b80604052505050565b60006133a3612f39565b90506133af8282613368565b919050565b600067ffffffffffffffff8211156133cf576133ce613339565b5b6133d88261304e565b9050602081019050919050565b82818337600083830152505050565b6000613407613402846133b4565b613399565b90508281526020810184848401111561342357613422613334565b5b61342e8482856133e5565b509392505050565b600082601f83011261344b5761344a61332f565b5b813561345b8482602086016133f4565b91505092915050565b6000806040838503121561347b5761347a612f43565b5b600083013567ffffffffffffffff81111561349957613498612f48565b5b6134a585828601613436565b925050602083013567ffffffffffffffff8111156134c6576134c5612f48565b5b6134d285828601613436565b9150509250929050565b6000819050919050565b6134ef816134dc565b82525050565b6134fe816131e5565b82525050565b61350d816130ba565b82525050565b60e08201600082015161352960008501826134e6565b50602082015161353c60208501826134f5565b50604082015161354f6040850182613504565b50606082015161356260608501826134e6565b50608082015161357560808501826134e6565b5060a082015161358860a08501826134e6565b5060c082015161359b60c08501826134e6565b50505050565b600060e0820190506135b66000830184613513565b92915050565b6000602082840312156135d2576135d1612f43565b5b60006135e084828501613190565b91505092915050565b60008060408385031215613600576135ff612f43565b5b600083013567ffffffffffffffff81111561361e5761361d612f48565b5b61362a85828601613436565b925050602061363b858286016130db565b9150509250929050565b600067ffffffffffffffff8211156136605761365f613339565b5b602082029050602081019050919050565b600080fd5b600061368961368484613645565b613399565b905080838252602082019050602084028301858111156136ac576136ab613671565b5b835b818110156136d557806136c18882613190565b8452602084019350506020810190506136ae565b5050509392505050565b600082601f8301126136f4576136f361332f565b5b8135613704848260208601613676565b91505092915050565b6000806040838503121561372457613723612f43565b5b600083013567ffffffffffffffff81111561374257613741612f48565b5b61374e858286016136df565b925050602061375f85828601613190565b9150509250929050565b600080604083850312156137805761377f612f43565b5b600061378e85828601613190565b925050602061379f8582860161327f565b9150509250929050565b6137b2816134dc565b82525050565b600060e0820190506137cd600083018a6137a9565b6137da60208301896131f7565b6137e76040830188613206565b6137f460608301876137a9565b61380160808301866137a9565b61380e60a08301856137a9565b61381b60c08301846137a9565b98975050505050505050565b600067ffffffffffffffff82111561384257613841613339565b5b61384b8261304e565b9050602081019050919050565b600061386b61386684613827565b613399565b90508281526020810184848401111561388757613886613334565b5b6138928482856133e5565b509392505050565b600082601f8301126138af576138ae61332f565b5b81356138bf848260208601613858565b91505092915050565b600080600080608085870312156138e2576138e1612f43565b5b60006138f087828801613190565b945050602061390187828801613190565b9350506040613912878288016130db565b925050606085013567ffffffffffffffff81111561393357613932612f48565b5b61393f8782880161389a565b91505092959194509250565b6000806040838503121561396257613961612f43565b5b6000613970858286016130db565b925050602061398185828601613190565b9150509250929050565b600080604083850312156139a2576139a1612f43565b5b60006139b085828601613190565b92505060206139c185828601613190565b9150509250929050565b60006040820190506139e06000830185612fde565b6139ed6020830184613206565b9392505050565b7f4e487b7100000000000000000000000000000000000000000000000000000000600052602260045260246000fd5b60006002820490506001821680613a3b57607f821691505b602082108103613a4e57613a4d6139f4565b5b50919050565b7f4552433732313a20617070726f76616c20746f2063757272656e74206f776e6560008201527f7200000000000000000000000000000000000000000000000000000000000000602082015250565b6000613ab0602183613013565b9150613abb82613a54565b604082019050919050565b60006020820190508181036000830152613adf81613aa3565b9050919050565b7f4552433732313a20617070726f76652063616c6c6572206973206e6f7420746f60008201527f6b656e206f776e6572206f7220617070726f76656420666f7220616c6c000000602082015250565b6000613b42603d83613013565b9150613b4d82613ae6565b604082019050919050565b60006020820190508181036000830152613b7181613b35565b9050919050565b7f4552433732313a2063616c6c6572206973206e6f7420746f6b656e206f776e6560008201527f72206f7220617070726f76656400000000000000000000000000000000000000602082015250565b6000613bd4602d83613013565b9150613bdf82613b78565b604082019050919050565b60006020820190508181036000830152613c0381613bc7565b9050919050565b600081905092915050565b6000613c2082613008565b613c2a8185613c0a565b9350613c3a818560208601613024565b80840191505092915050565b7f2000000000000000000000000000000000000000000000000000000000000000600082015250565b6000613c7c600183613c0a565b9150613c8782613c46565b600182019050919050565b6000613c9e8285613c15565b9150613ca982613c6f565b9150613cb58284613c15565b91508190509392505050565b7f455243373231456e756d657261626c653a206f776e657220696e646578206f7560008201527f74206f6620626f756e6473000000000000000000000000000000000000000000602082015250565b6000613d1d602b83613013565b9150613d2882613cc1565b604082019050919050565b60006020820190508181036000830152613d4c81613d10565b9050919050565b7f455243373231456e756d657261626c653a20676c6f62616c20696e646578206f60008201527f7574206f6620626f756e64730000000000000000000000000000000000000000602082015250565b6000613daf602c83613013565b9150613dba82613d53565b604082019050919050565b60006020820190508181036000830152613dde81613da2565b9050919050565b7f4e487b7100000000000000000000000000000000000000000000000000000000600052603260045260246000fd5b7f4552433732313a20696e76616c696420746f6b656e2049440000000000000000600082015250565b6000613e4a601883613013565b9150613e5582613e14565b602082019050919050565b60006020820190508181036000830152613e7981613e3d565b9050919050565b7f4552433732313a2061646472657373207a65726f206973206e6f74206120766160008201527f6c6964206f776e65720000000000000000000000000000000000000000000000602082015250565b6000613edc602983613013565b9150613ee782613e80565b604082019050919050565b60006020820190508181036000830152613f0b81613ecf565b9050919050565b7f4e487b7100000000000000000000000000000000000000000000000000000000600052601160045260246000fd5b6000613f4c826130ba565b91507fffffffffffffffffffffffffffffffffffffffffffffffffffffffffffffffff8203613f7e57613f7d613f12565b5b600182019050919050565b7f436f6e74726163742063757272656e746c792070617573656400000000000000600082015250565b6000613fbf601983613013565b9150613fca82613f89565b602082019050919050565b60006020820190508181036000830152613fee81613fb2565b9050919050565b7f457863656564206d6178696d756d20546f6b776e466163746f7279207375707060008201527f6c79000000000000000000000000000000000000000000000000000000000000602082015250565b6000614051602283613013565b915061405c82613ff5565b604082019050919050565b6000602082019050818103600083015261408081614044565b9050919050565b6000614092826130ba565b915061409d836130ba565b92508282019050808211156140b5576140b4613f12565b5b92915050565b60008190508160005260206000209050919050565b60006020601f8301049050919050565b600082821b905092915050565b60006008830261411d7fffffffffffffffffffffffffffffffffffffffffffffffffffffffffffffffff826140e0565b61412786836140e0565b95508019841693508086168417925050509392505050565b6000819050919050565b600061416461415f61415a846130ba565b61413f565b6130ba565b9050919050565b6000819050919050565b61417e83614149565b61419261418a8261416b565b8484546140ed565b825550505050565b600090565b6141a761419a565b6141b2818484614175565b505050565b5b818110156141d6576141cb60008261419f565b6001810190506141b8565b5050565b601f82111561421b576141ec816140bb565b6141f5846140d0565b81016020851015614204578190505b614218614210856140d0565b8301826141b7565b50505b505050565b600082821c905092915050565b600061423e60001984600802614220565b1980831691505092915050565b6000614257838361422d565b9150826002028217905092915050565b61427082613008565b67ffffffffffffffff81111561428957614288613339565b5b6142938254613a23565b61429e8282856141da565b600060209050601f8311600181146142d157600084156142bf578287015190505b6142c9858261424b565b865550614331565b601f1984166142df866140bb565b60005b82811015614307578489015182556001820191506020850194506020810190506142e2565b868310156143245784890151614320601f89168261422d565b8355505b6001600288020188555050505b505050505050565b60006143458285613c15565b91506143518284613c15565b91508190509392505050565b7f4f776e61626c653a206e6577206f776e657220697320746865207a65726f206160008201527f6464726573730000000000000000000000000000000000000000000000000000602082015250565b60006143b9602683613013565b91506143c48261435d565b604082019050919050565b600060208201905081810360008301526143e8816143ac565b9050919050565b7f4e487b7100000000000000000000000000000000000000000000000000000000600052601260045260246000fd5b7f4f776e61626c653a2063616c6c6572206973206e6f7420746865206f776e6572600082015250565b6000614454602083613013565b915061445f8261441e565b602082019050919050565b6000602082019050818103600083015261448381614447565b9050919050565b7f4552433732313a207472616e736665722066726f6d20696e636f72726563742060008201527f6f776e6572000000000000000000000000000000000000000000000000000000602082015250565b60006144e6602583613013565b91506144f18261448a565b604082019050919050565b60006020820190508181036000830152614515816144d9565b9050919050565b7f4552433732313a207472616e7366657220746f20746865207a65726f2061646460008201527f7265737300000000000000000000000000000000000000000000000000000000602082015250565b6000614578602483613013565b91506145838261451c565b604082019050919050565b600060208201905081810360008301526145a78161456b565b9050919050565b7f4552433732313a20617070726f766520746f2063616c6c657200000000000000600082015250565b60006145e4601983613013565b91506145ef826145ae565b602082019050919050565b60006020820190508181036000830152614613816145d7565b9050919050565b7f4552433732313a207472616e7366657220746f206e6f6e20455243373231526560008201527f63656976657220696d706c656d656e7465720000000000000000000000000000602082015250565b6000614676603283613013565b91506146818261461a565b604082019050919050565b600060208201905081810360008301526146a581614669565b9050919050565b7f455243373231456e756d657261626c653a20636f6e736563757469766520747260008201527f616e7366657273206e6f7420737570706f727465640000000000000000000000602082015250565b6000614708603583613013565b9150614713826146ac565b604082019050919050565b60006020820190508181036000830152614737816146fb565b9050919050565b600081519050919050565b600082825260208201905092915050565b60006147658261473e565b61476f8185614749565b935061477f818560208601613024565b6147888161304e565b840191505092915050565b60006080820190506147a8600083018761314f565b6147b5602083018661314f565b6147c26040830185613206565b81810360608301526147d4818461475a565b905095945050505050565b6000815190506147ee81612f79565b92915050565b60006020828403121561480a57614809612f43565b5b6000614818848285016147df565b91505092915050565b600061482c826130ba565b9150614837836130ba565b925082820390508181111561484f5761484e613f12565b5b92915050565b7f4e487b7100000000000000000000000000000000000000000000000000000000600052603160045260246000fd5b7f4552433732313a206d696e7420746f20746865207a65726f2061646472657373600082015250565b60006148ba602083613013565b91506148c582614884565b602082019050919050565b600060208201905081810360008301526148e9816148ad565b9050919050565b7f4552433732313a20746f6b656e20616c7265616479206d696e74656400000000600082015250565b6000614926601c83613013565b9150614931826148f0565b602082019050919050565b6000602082019050818103600083015261495581614919565b905091905056fea264697066735822122029b85fbda65d07b86980bcf0aeb94f95f78013a3d7efe7fb3f2a4e64ee54c3ef64736f6c63430008110033",
  "linkReferences": {},
  "deployedLinkReferences": {}
}