{
  "_format": "hh-sol-artifact-1",
  "contractName": "TokenFactory",
  "sourceName": "contracts/arogya/TokenFactory.sol",
  "abi": [
    {
      "inputs": [
        {
          "internalType": "bytes32",
          "name": "baseURI",
          "type": "bytes32"
        },
        {
          "internalType": "bytes32",
          "name": "ownerName",
          "type": "bytes32"
        },
        {
          "internalType": "address payable",
          "name": "ownerAddress",
          "type": "address"
        },
        {
          "internalType": "uint256",
          "name": "ownerAge",
          "type": "uint256"
        },
        {
          "internalType": "bytes32",
          "name": "ownerBloodGroup",
          "type": "bytes32"
        },
        {
          "internalType": "bytes32",
          "name": "ownerAllergies",
          "type": "bytes32"
        },
        {
          "internalType": "bytes32",
          "name": "ownerMedication",
          "type": "bytes32"
        },
        {
          "internalType": "bytes32",
          "name": "ownerAbout",
          "type": "bytes32"
        },
        {
          "internalType": "uint256",
          "name": "uid",
          "type": "uint256"
        }
      ],
      "stateMutability": "nonpayable",
      "type": "constructor"
    },
    {
      "inputs": [],
      "name": "CallbackNotAuthorized",
      "type": "error"
    },
    {
      "anonymous": false,
      "inputs": [
        {
          "indexed": true,
          "internalType": "address",
          "name": "owner",
          "type": "address"
        },
        {
          "indexed": true,
          "internalType": "address",
          "name": "approved",
          "type": "address"
        },
        {
          "indexed": true,
          "internalType": "uint256",
          "name": "tokenId",
          "type": "uint256"
        }
      ],
      "name": "Approval",
      "type": "event"
    },
    {
      "anonymous": false,
      "inputs": [
        {
          "indexed": true,
          "internalType": "address",
          "name": "owner",
          "type": "address"
        },
        {
          "indexed": true,
          "internalType": "address",
          "name": "operator",
          "type": "address"
        },
        {
          "indexed": false,
          "internalType": "bool",
          "name": "approved",
          "type": "bool"
        }
      ],
      "name": "ApprovalForAll",
      "type": "event"
    },
    {
      "anonymous": false,
      "inputs": [
        {
          "indexed": true,
          "internalType": "uint256",
          "name": "requestId",
          "type": "uint256"
        },
        {
          "components": [
            {
              "components": [
                {
                  "internalType": "uint256",
                  "name": "x",
                  "type": "uint256"
                },
                {
                  "internalType": "uint256",
                  "name": "y",
                  "type": "uint256"
                }
              ],
              "internalType": "struct G1Point",
              "name": "random",
              "type": "tuple"
            },
            {
              "internalType": "uint256",
              "name": "cipher",
              "type": "uint256"
            },
            {
              "components": [
                {
                  "internalType": "uint256",
                  "name": "x",
                  "type": "uint256"
                },
                {
                  "internalType": "uint256",
                  "name": "y",
                  "type": "uint256"
                }
              ],
              "internalType": "struct G1Point",
              "name": "random2",
              "type": "tuple"
            },
            {
              "components": [
                {
                  "internalType": "uint256",
                  "name": "f",
                  "type": "uint256"
                },
                {
                  "internalType": "uint256",
                  "name": "e",
                  "type": "uint256"
                }
              ],
              "internalType": "struct DleqProof",
              "name": "dleq",
              "type": "tuple"
            }
          ],
          "indexed": false,
          "internalType": "struct Ciphertext",
          "name": "ciphertext",
          "type": "tuple"
        }
      ],
      "name": "EntryIntoDecryptionProcess",
      "type": "event"
    },
    {
      "anonymous": false,
      "inputs": [
        {
          "indexed": true,
          "internalType": "address",
          "name": "buyer",
          "type": "address"
        },
        {
          "indexed": true,
          "internalType": "address",
          "name": "seller",
          "type": "address"
        },
        {
          "indexed": false,
          "internalType": "uint256",
          "name": "requestId",
          "type": "uint256"
        },
        {
          "indexed": false,
          "internalType": "uint256",
          "name": "cipherId",
          "type": "uint256"
        }
      ],
      "name": "NewReencryptionRequest",
      "type": "event"
    },
    {
      "anonymous": false,
      "inputs": [
        {
          "indexed": true,
          "internalType": "address",
          "name": "previousOwner",
          "type": "address"
        },
        {
          "indexed": true,
          "internalType": "address",
          "name": "newOwner",
          "type": "address"
        }
      ],
      "name": "OwnershipTransferred",
      "type": "event"
    },
    {
      "anonymous": false,
      "inputs": [
        {
          "indexed": true,
          "internalType": "address",
          "name": "from",
          "type": "address"
        },
        {
          "indexed": true,
          "internalType": "address",
          "name": "to",
          "type": "address"
        },
        {
          "indexed": true,
          "internalType": "uint256",
          "name": "tokenId",
          "type": "uint256"
        }
      ],
      "name": "Transfer",
      "type": "event"
    },
    {
      "stateMutability": "payable",
      "type": "fallback"
    },
    {
      "inputs": [],
      "name": "_collectionId",
      "outputs": [
        {
          "internalType": "uint256",
          "name": "",
          "type": "uint256"
        }
      ],
      "stateMutability": "view",
      "type": "function"
    },
    {
      "inputs": [],
      "name": "_paused",
      "outputs": [
        {
          "internalType": "bool",
          "name": "",
          "type": "bool"
        }
      ],
      "stateMutability": "view",
      "type": "function"
    },
    {
      "inputs": [
        {
          "internalType": "address",
          "name": "to",
          "type": "address"
        },
        {
          "internalType": "uint256",
          "name": "tokenId",
          "type": "uint256"
        }
      ],
      "name": "approve",
      "outputs": [],
      "stateMutability": "nonpayable",
      "type": "function"
    },
    {
      "inputs": [
        {
          "internalType": "address",
          "name": "owner",
          "type": "address"
        }
      ],
      "name": "balanceOf",
      "outputs": [
        {
          "internalType": "uint256",
          "name": "",
          "type": "uint256"
        }
      ],
      "stateMutability": "view",
      "type": "function"
    },
    {
      "inputs": [
        {
          "internalType": "string",
          "name": "a",
          "type": "string"
        },
        {
          "internalType": "string",
          "name": "b",
          "type": "string"
        }
      ],
      "name": "concatenate",
      "outputs": [
        {
          "internalType": "string",
          "name": "",
          "type": "string"
        }
      ],
      "stateMutability": "pure",
      "type": "function"
    },
    {
      "inputs": [
        {
          "internalType": "uint256",
          "name": "tokenId",
          "type": "uint256"
        }
      ],
      "name": "getApproved",
      "outputs": [
        {
          "internalType": "address",
          "name": "",
          "type": "address"
        }
      ],
      "stateMutability": "view",
      "type": "function"
    },
    {
      "inputs": [],
      "name": "getContractBalance",
      "outputs": [
        {
          "internalType": "uint256",
          "name": "",
          "type": "uint256"
        }
      ],
      "stateMutability": "view",
      "type": "function"
    },
    {
      "inputs": [
        {
          "internalType": "string",
          "name": "a2",
          "type": "string"
        },
        {
          "internalType": "uint256",
          "name": "b2",
          "type": "uint256"
        }
      ],
      "name": "getFinalString",
      "outputs": [
        {
          "internalType": "string",
          "name": "",
          "type": "string"
        }
      ],
      "stateMutability": "pure",
      "type": "function"
    },
    {
      "inputs": [],
      "name": "getOwnerDetails",
      "outputs": [
        {
          "components": [
            {
              "internalType": "bytes32",
              "name": "_ownerName",
              "type": "bytes32"
            },
            {
              "internalType": "address payable",
              "name": "_ownerAddress",
              "type": "address"
            },
            {
              "internalType": "uint256",
              "name": "_ownerAge",
              "type": "uint256"
            },
            {
              "internalType": "bytes32",
              "name": "_ownerBloodGroup",
              "type": "bytes32"
            },
            {
              "internalType": "bytes32",
              "name": "_ownerAllergies",
              "type": "bytes32"
            },
            {
              "internalType": "bytes32",
              "name": "_ownerMedication",
              "type": "bytes32"
            },
            {
              "internalType": "bytes32",
              "name": "_ownerAbout",
              "type": "bytes32"
            }
          ],
          "internalType": "struct TokenFactory.ownerDetailsType",
          "name": "",
          "type": "tuple"
        }
      ],
      "stateMutability": "view",
      "type": "function"
    },
    {
      "inputs": [
        {
          "internalType": "uint256",
          "name": "",
          "type": "uint256"
        }
      ],
      "name": "id_TokenDetailMapping",
      "outputs": [
        {
          "internalType": "address payable",
          "name": "_addressOfOwner",
          "type": "address"
        },
        {
          "internalType": "uint256",
          "name": "_tokenId",
          "type": "uint256"
        },
        {
          "internalType": "string",
          "name": "_dataDescription",
          "type": "string"
        },
        {
          "internalType": "string",
          "name": "_dataUrl",
          "type": "string"
        }
      ],
      "stateMutability": "view",
      "type": "function"
    },
    {
      "inputs": [
        {
          "internalType": "address",
          "name": "owner",
          "type": "address"
        },
        {
          "internalType": "address",
          "name": "operator",
          "type": "address"
        }
      ],
      "name": "isApprovedForAll",
      "outputs": [
        {
          "internalType": "bool",
          "name": "",
          "type": "bool"
        }
      ],
      "stateMutability": "view",
      "type": "function"
    },
    {
      "inputs": [],
      "name": "maxTokenIds",
      "outputs": [
        {
          "internalType": "uint256",
          "name": "",
          "type": "uint256"
        }
      ],
      "stateMutability": "view",
      "type": "function"
    },
    {
      "inputs": [],
      "name": "medusaOracleAddress",
      "outputs": [
        {
          "internalType": "address",
          "name": "",
          "type": "address"
        }
      ],
      "stateMutability": "view",
      "type": "function"
    },
    {
      "inputs": [
        {
          "internalType": "string",
          "name": "dataDescription",
          "type": "string"
        },
        {
          "internalType": "string",
          "name": "dataUrl",
          "type": "string"
        }
      ],
      "name": "mint",
      "outputs": [
        {
          "internalType": "uint256",
          "name": "",
          "type": "uint256"
        }
      ],
      "stateMutability": "payable",
      "type": "function"
    },
    {
      "inputs": [],
      "name": "name",
      "outputs": [
        {
          "internalType": "string",
          "name": "",
          "type": "string"
        }
      ],
      "stateMutability": "view",
      "type": "function"
    },
    {
      "inputs": [],
      "name": "oracle",
      "outputs": [
        {
          "internalType": "contract IEncryptionOracle",
          "name": "",
          "type": "address"
        }
      ],
      "stateMutability": "view",
      "type": "function"
    },
    {
      "inputs": [
        {
          "internalType": "uint256",
          "name": "requestId",
          "type": "uint256"
        },
        {
          "components": [
            {
              "components": [
                {
                  "internalType": "uint256",
                  "name": "x",
                  "type": "uint256"
                },
                {
                  "internalType": "uint256",
                  "name": "y",
                  "type": "uint256"
                }
              ],
              "internalType": "struct G1Point",
              "name": "random",
              "type": "tuple"
            },
            {
              "internalType": "uint256",
              "name": "cipher",
              "type": "uint256"
            },
            {
              "components": [
                {
                  "internalType": "uint256",
                  "name": "x",
                  "type": "uint256"
                },
                {
                  "internalType": "uint256",
                  "name": "y",
                  "type": "uint256"
                }
              ],
              "internalType": "struct G1Point",
              "name": "random2",
              "type": "tuple"
            },
            {
              "components": [
                {
                  "internalType": "uint256",
                  "name": "f",
                  "type": "uint256"
                },
                {
                  "internalType": "uint256",
                  "name": "e",
                  "type": "uint256"
                }
              ],
              "internalType": "struct DleqProof",
              "name": "dleq",
              "type": "tuple"
            }
          ],
          "internalType": "struct Ciphertext",
          "name": "cipher",
          "type": "tuple"
        }
      ],
      "name": "oracleResult",
      "outputs": [],
      "stateMutability": "nonpayable",
      "type": "function"
    },
    {
      "inputs": [],
      "name": "owner",
      "outputs": [
        {
          "internalType": "address",
          "name": "",
          "type": "address"
        }
      ],
      "stateMutability": "view",
      "type": "function"
    },
    {
      "inputs": [],
      "name": "ownerDetails",
      "outputs": [
        {
          "internalType": "bytes32",
          "name": "_ownerName",
          "type": "bytes32"
        },
        {
          "internalType": "address payable",
          "name": "_ownerAddress",
          "type": "address"
        },
        {
          "internalType": "uint256",
          "name": "_ownerAge",
          "type": "uint256"
        },
        {
          "internalType": "bytes32",
          "name": "_ownerBloodGroup",
          "type": "bytes32"
        },
        {
          "internalType": "bytes32",
          "name": "_ownerAllergies",
          "type": "bytes32"
        },
        {
          "internalType": "bytes32",
          "name": "_ownerMedication",
          "type": "bytes32"
        },
        {
          "internalType": "bytes32",
          "name": "_ownerAbout",
          "type": "bytes32"
        }
      ],
      "stateMutability": "view",
      "type": "function"
    },
    {
      "inputs": [
        {
          "internalType": "uint256",
          "name": "tokenId",
          "type": "uint256"
        }
      ],
      "name": "ownerOf",
      "outputs": [
        {
          "internalType": "address",
          "name": "",
          "type": "address"
        }
      ],
      "stateMutability": "view",
      "type": "function"
    },
    {
      "inputs": [],
      "name": "renounceOwnership",
      "outputs": [],
      "stateMutability": "nonpayable",
      "type": "function"
    },
    {
      "inputs": [
        {
          "internalType": "address",
          "name": "from",
          "type": "address"
        },
        {
          "internalType": "address",
          "name": "to",
          "type": "address"
        },
        {
          "internalType": "uint256",
          "name": "tokenId",
          "type": "uint256"
        }
      ],
      "name": "safeTransferFrom",
      "outputs": [],
      "stateMutability": "nonpayable",
      "type": "function"
    },
    {
      "inputs": [
        {
          "internalType": "address",
          "name": "from",
          "type": "address"
        },
        {
          "internalType": "address",
          "name": "to",
          "type": "address"
        },
        {
          "internalType": "uint256",
          "name": "tokenId",
          "type": "uint256"
        },
        {
          "internalType": "bytes",
          "name": "data",
          "type": "bytes"
        }
      ],
      "name": "safeTransferFrom",
      "outputs": [],
      "stateMutability": "nonpayable",
      "type": "function"
    },
    {
      "inputs": [
        {
          "internalType": "address",
          "name": "operator",
          "type": "address"
        },
        {
          "internalType": "bool",
          "name": "approved",
          "type": "bool"
        }
      ],
      "name": "setApprovalForAll",
      "outputs": [],
      "stateMutability": "nonpayable",
      "type": "function"
    },
    {
      "inputs": [
        {
          "internalType": "bool",
          "name": "val",
          "type": "bool"
        }
      ],
      "name": "setPaused",
      "outputs": [],
      "stateMutability": "nonpayable",
      "type": "function"
    },
    {
      "inputs": [
        {
          "internalType": "bytes4",
          "name": "interfaceId",
          "type": "bytes4"
        }
      ],
      "name": "supportsInterface",
      "outputs": [
        {
          "internalType": "bool",
          "name": "",
          "type": "bool"
        }
      ],
      "stateMutability": "view",
      "type": "function"
    },
    {
      "inputs": [],
      "name": "symbol",
      "outputs": [
        {
          "internalType": "string",
          "name": "",
          "type": "string"
        }
      ],
      "stateMutability": "view",
      "type": "function"
    },
    {
      "inputs": [
        {
          "internalType": "uint256",
          "name": "index",
          "type": "uint256"
        }
      ],
      "name": "tokenByIndex",
      "outputs": [
        {
          "internalType": "uint256",
          "name": "",
          "type": "uint256"
        }
      ],
      "stateMutability": "view",
      "type": "function"
    },
    {
      "inputs": [],
      "name": "tokenIds",
      "outputs": [
        {
          "internalType": "uint256",
          "name": "",
          "type": "uint256"
        }
      ],
      "stateMutability": "view",
      "type": "function"
    },
    {
      "inputs": [
        {
          "internalType": "address",
          "name": "owner",
          "type": "address"
        },
        {
          "internalType": "uint256",
          "name": "index",
          "type": "uint256"
        }
      ],
      "name": "tokenOfOwnerByIndex",
      "outputs": [
        {
          "internalType": "uint256",
          "name": "",
          "type": "uint256"
        }
      ],
      "stateMutability": "view",
      "type": "function"
    },
    {
      "inputs": [
        {
          "internalType": "uint256",
          "name": "tokenId",
          "type": "uint256"
        }
      ],
      "name": "tokenURI",
      "outputs": [
        {
          "internalType": "string",
          "name": "",
          "type": "string"
        }
      ],
      "stateMutability": "view",
      "type": "function"
    },
    {
      "inputs": [],
      "name": "totalSupply",
      "outputs": [
        {
          "internalType": "uint256",
          "name": "",
          "type": "uint256"
        }
      ],
      "stateMutability": "view",
      "type": "function"
    },
    {
      "inputs": [
        {
          "internalType": "address",
          "name": "from",
          "type": "address"
        },
        {
          "internalType": "address",
          "name": "to",
          "type": "address"
        },
        {
          "internalType": "uint256",
          "name": "tokenId",
          "type": "uint256"
        }
      ],
      "name": "transferFrom",
      "outputs": [],
      "stateMutability": "nonpayable",
      "type": "function"
    },
    {
      "inputs": [
        {
          "internalType": "address",
          "name": "newOwner",
          "type": "address"
        }
      ],
      "name": "transferOwnership",
      "outputs": [],
      "stateMutability": "nonpayable",
      "type": "function"
    },
    {
      "stateMutability": "payable",
      "type": "receive"
    }
  ],
  "bytecode": "0x608060405273b0dd3eb2374b21b6efacf41a16e25ed8114734e0600b60006101000a81548173ffffffffffffffffffffffffffffffffffffffff021916908373ffffffffffffffffffffffffffffffffffffffff16021790555060646018553480156200006b57600080fd5b50604051620056b2380380620056b283398181016040528101906200009191906200087b565b620000d86040518060400160405280600d81526020017f546f6b656e20466163746f72790000000000000000000000000000000000000081525082620002c760201b60201c565b6200011f6040518060400160405280600281526020017f544600000000000000000000000000000000000000000000000000000000000081525083620002c760201b60201c565b816000908162000130919062000bca565b50806001908162000142919062000bca565b5050506200016562000159620002fe60201b60201c565b6200030660201b60201c565b600b60009054906101000a900473ffffffffffffffffffffffffffffffffffffffff16600c60006101000a81548173ffffffffffffffffffffffffffffffffffffffff021916908373ffffffffffffffffffffffffffffffffffffffff16021790555088600e81905550806016819055506040518060e001604052808981526020018873ffffffffffffffffffffffffffffffffffffffff16815260200187815260200186815260200185815260200184815260200183815250600f6000820151816000015560208201518160010160006101000a81548173ffffffffffffffffffffffffffffffffffffffff021916908373ffffffffffffffffffffffffffffffffffffffff16021790555060408201518160020155606082015181600301556080820151816004015560a0820151816005015560c08201518160060155905050620002b887620003cc60201b60201c565b50505050505050505062000eee565b60606000620002e1836200046260201b620017461760201c565b9050620002f584826200054660201b60201c565b91505092915050565b600033905090565b6000600a60009054906101000a900473ffffffffffffffffffffffffffffffffffffffff16905081600a60006101000a81548173ffffffffffffffffffffffffffffffffffffffff021916908373ffffffffffffffffffffffffffffffffffffffff1602179055508173ffffffffffffffffffffffffffffffffffffffff168173ffffffffffffffffffffffffffffffffffffffff167f8be0079c531659141344cd1fd0a4f28419497f9722a3daafe3b4186f6b6457e060405160405180910390a35050565b620003dc6200057460201b60201c565b600073ffffffffffffffffffffffffffffffffffffffff168173ffffffffffffffffffffffffffffffffffffffff16036200044e576040517f08c379a0000000000000000000000000000000000000000000000000000000008152600401620004459062000d38565b60405180910390fd5b6200045f816200030660201b60201c565b50565b6060600060016200047e846200060560201b620018141760201c565b01905060008167ffffffffffffffff811115620004a0576200049f62000965565b5b6040519080825280601f01601f191660200182016040528015620004d35781602001600182028036833780820191505090505b509050600082602001820190505b6001156200053b578080600190039150507f3031323334353637383961626364656600000000000000000000000000000000600a86061a8153600a85816200052e576200052d62000d5a565b5b04945060008503620004e1575b819350505050919050565b606082826040516020016200055d92919062000e47565b604051602081830303815290604052905092915050565b62000584620002fe60201b60201c565b73ffffffffffffffffffffffffffffffffffffffff16620005aa6200077160201b60201c565b73ffffffffffffffffffffffffffffffffffffffff161462000603576040517f08c379a0000000000000000000000000000000000000000000000000000000008152600401620005fa9062000ecc565b60405180910390fd5b565b600080600090507a184f03e93ff9f4daa797ed6e38ed64bf6a1f010000000000000000831062000667577a184f03e93ff9f4daa797ed6e38ed64bf6a1f01000000000000000083816200065d576200065c62000d5a565b5b0492506040810190505b6d04ee2d6d415b85acef81000000008310620006a8576d04ee2d6d415b85acef810000000083816200069e576200069d62000d5a565b5b0492506020810190505b662386f26fc100008310620006db57662386f26fc100008381620006d157620006d062000d5a565b5b0492506010810190505b6305f5e100831062000708576305f5e1008381620006fe57620006fd62000d5a565b5b0492506008810190505b61271083106200073157612710838162000727576200072662000d5a565b5b0492506004810190505b606483106200075857606483816200074e576200074d62000d5a565b5b0492506002810190505b600a831062000768576001810190505b80915050919050565b6000600a60009054906101000a900473ffffffffffffffffffffffffffffffffffffffff16905090565b600080fd5b6000819050919050565b620007b581620007a0565b8114620007c157600080fd5b50565b600081519050620007d581620007aa565b92915050565b600073ffffffffffffffffffffffffffffffffffffffff82169050919050565b60006200080882620007db565b9050919050565b6200081a81620007fb565b81146200082657600080fd5b50565b6000815190506200083a816200080f565b92915050565b6000819050919050565b620008558162000840565b81146200086157600080fd5b50565b60008151905062000875816200084a565b92915050565b60008060008060008060008060006101208a8c031215620008a157620008a06200079b565b5b6000620008b18c828d01620007c4565b9950506020620008c48c828d01620007c4565b9850506040620008d78c828d0162000829565b9750506060620008ea8c828d0162000864565b9650506080620008fd8c828d01620007c4565b95505060a0620009108c828d01620007c4565b94505060c0620009238c828d01620007c4565b93505060e0620009368c828d01620007c4565b9250506101006200094a8c828d0162000864565b9150509295985092959850929598565b600081519050919050565b7f4e487b7100000000000000000000000000000000000000000000000000000000600052604160045260246000fd5b7f4e487b7100000000000000000000000000000000000000000000000000000000600052602260045260246000fd5b60006002820490506001821680620009dc57607f821691505b602082108103620009f257620009f162000994565b5b50919050565b60008190508160005260206000209050919050565b60006020601f8301049050919050565b600082821b905092915050565b60006008830262000a5c7fffffffffffffffffffffffffffffffffffffffffffffffffffffffffffffffff8262000a1d565b62000a68868362000a1d565b95508019841693508086168417925050509392505050565b6000819050919050565b600062000aab62000aa562000a9f8462000840565b62000a80565b62000840565b9050919050565b6000819050919050565b62000ac78362000a8a565b62000adf62000ad68262000ab2565b84845462000a2a565b825550505050565b600090565b62000af662000ae7565b62000b0381848462000abc565b505050565b5b8181101562000b2b5762000b1f60008262000aec565b60018101905062000b09565b5050565b601f82111562000b7a5762000b4481620009f8565b62000b4f8462000a0d565b8101602085101562000b5f578190505b62000b7762000b6e8562000a0d565b83018262000b08565b50505b505050565b600082821c905092915050565b600062000b9f6000198460080262000b7f565b1980831691505092915050565b600062000bba838362000b8c565b9150826002028217905092915050565b62000bd5826200095a565b67ffffffffffffffff81111562000bf15762000bf062000965565b5b62000bfd8254620009c3565b62000c0a82828562000b2f565b600060209050601f83116001811462000c42576000841562000c2d578287015190505b62000c39858262000bac565b86555062000ca9565b601f19841662000c5286620009f8565b60005b8281101562000c7c5784890151825560018201915060208501945060208101905062000c55565b8683101562000c9c578489015162000c98601f89168262000b8c565b8355505b6001600288020188555050505b505050505050565b600082825260208201905092915050565b7f4f776e61626c653a206e6577206f776e657220697320746865207a65726f206160008201527f6464726573730000000000000000000000000000000000000000000000000000602082015250565b600062000d2060268362000cb1565b915062000d2d8262000cc2565b604082019050919050565b6000602082019050818103600083015262000d538162000d11565b9050919050565b7f4e487b7100000000000000000000000000000000000000000000000000000000600052601260045260246000fd5b600081905092915050565b60005b8381101562000db457808201518184015260208101905062000d97565b60008484015250505050565b600062000dcd826200095a565b62000dd9818562000d89565b935062000deb81856020860162000d94565b80840191505092915050565b7f2000000000000000000000000000000000000000000000000000000000000000600082015250565b600062000e2f60018362000d89565b915062000e3c8262000df7565b600182019050919050565b600062000e55828562000dc0565b915062000e628262000e20565b915062000e70828462000dc0565b91508190509392505050565b7f4f776e61626c653a2063616c6c6572206973206e6f7420746865206f776e6572600082015250565b600062000eb460208362000cb1565b915062000ec18262000e7c565b602082019050919050565b6000602082019050818103600083015262000ee78162000ea5565b9050919050565b6147b48062000efe6000396000f3fe6080604052600436106101fd5760003560e01c80636f9fb98a1161010d5780638da5cb5b116100a0578063b88d4fde1161006f578063b88d4fde14610775578063c87b56dd1461079e578063e985e9c5146107db578063f2fde38b14610818578063ff083c151461084157610204565b80638da5cb5b146106c557806395d89b41146106f0578063a22cb4651461071b578063b3cee1311461074457610204565b80637dc0d1d0116100dc5780637dc0d1d0146106025780637df43b821461062d5780638296a2e81461066a5780638aa0fdad1461069557610204565b80636f9fb98a1461055857806370a0823114610583578063714cff56146105c0578063715018a6146105eb57610204565b806323b872dd1161019057806340ceeee91161015f57806340ceeee91461046157806342842e0e1461048a5780634f6ccce7146104b35780635f769621146104f05780636352211e1461051b57610204565b806323b872dd14610393578063266001d3146103bc5780632f745c59146103f95780633c4717251461043657610204565b806312834c97116101cc57806312834c97146102d457806316c38b3c1461031457806316c61ccc1461033d57806318160ddd1461036857610204565b806301ffc9a71461020657806306fdde0314610243578063081812fc1461026e578063095ea7b3146102ab57610204565b3661020457005b005b34801561021257600080fd5b5061022d60048036038101906102289190612d8c565b61086c565b60405161023a9190612dd4565b60405180910390f35b34801561024f57600080fd5b506102586108e6565b6040516102659190612e7f565b60405180910390f35b34801561027a57600080fd5b5061029560048036038101906102909190612ed7565b610978565b6040516102a29190612f45565b60405180910390f35b3480156102b757600080fd5b506102d260048036038101906102cd9190612f8c565b6109be565b005b3480156102e057600080fd5b506102fb60048036038101906102f69190612ed7565b610ad5565b60405161030b9493929190612ffc565b60405180910390f35b34801561032057600080fd5b5061033b6004803603810190610336919061307b565b610c35565b005b34801561034957600080fd5b50610352610c5a565b60405161035f9190612dd4565b60405180910390f35b34801561037457600080fd5b5061037d610c6d565b60405161038a91906130a8565b60405180910390f35b34801561039f57600080fd5b506103ba60048036038101906103b591906130c3565b610c7a565b005b3480156103c857600080fd5b506103e360048036038101906103de919061324b565b610cda565b6040516103f09190612e7f565b60405180910390f35b34801561040557600080fd5b50610420600480360381019061041b9190612f8c565b610d06565b60405161042d91906130a8565b60405180910390f35b34801561044257600080fd5b5061044b610dab565b6040516104589190613388565b60405180910390f35b34801561046d57600080fd5b50610488600480360381019061048391906133c7565b610e57565b005b34801561049657600080fd5b506104b160048036038101906104ac91906130c3565b610f1a565b005b3480156104bf57600080fd5b506104da60048036038101906104d59190612ed7565b610f3a565b6040516104e791906130a8565b60405180910390f35b3480156104fc57600080fd5b50610505610fab565b60405161051291906130a8565b60405180910390f35b34801561052757600080fd5b50610542600480360381019061053d9190612ed7565b610fb1565b60405161054f9190612f45565b60405180910390f35b34801561056457600080fd5b5061056d611037565b60405161057a91906130a8565b60405180910390f35b34801561058f57600080fd5b506105aa60048036038101906105a59190613408565b611047565b6040516105b791906130a8565b60405180910390f35b3480156105cc57600080fd5b506105d56110fe565b6040516105e291906130a8565b60405180910390f35b3480156105f757600080fd5b50610600611104565b005b34801561060e57600080fd5b50610617611118565b6040516106249190613494565b60405180910390f35b34801561063957600080fd5b50610654600480360381019061064f91906134af565b61113e565b6040516106619190612e7f565b60405180910390f35b34801561067657600080fd5b5061067f611160565b60405161068c91906130a8565b60405180910390f35b6106af60048036038101906106aa919061324b565b611166565b6040516106bc91906130a8565b60405180910390f35b3480156106d157600080fd5b506106da61141d565b6040516106e79190612f45565b60405180910390f35b3480156106fc57600080fd5b50610705611447565b6040516107129190612e7f565b60405180910390f35b34801561072757600080fd5b50610742600480360381019061073d919061350b565b6114d9565b005b34801561075057600080fd5b506107596114ef565b60405161076c979695949392919061355a565b60405180910390f35b34801561078157600080fd5b5061079c6004803603810190610797919061366a565b61153f565b005b3480156107aa57600080fd5b506107c560048036038101906107c09190612ed7565b6115a1565b6040516107d29190612e7f565b60405180910390f35b3480156107e757600080fd5b5061080260048036038101906107fd91906136ed565b611609565b60405161080f9190612dd4565b60405180910390f35b34801561082457600080fd5b5061083f600480360381019061083a9190613408565b61169d565b005b34801561084d57600080fd5b50610856611720565b6040516108639190612f45565b60405180910390f35b60007f780e9d63000000000000000000000000000000000000000000000000000000007bffffffffffffffffffffffffffffffffffffffffffffffffffffffff1916827bffffffffffffffffffffffffffffffffffffffffffffffffffffffff191614806108df57506108de82611967565b5b9050919050565b6060600080546108f59061375c565b80601f01602080910402602001604051908101604052809291908181526020018280546109219061375c565b801561096e5780601f106109435761010080835404028352916020019161096e565b820191906000526020600020905b81548152906001019060200180831161095157829003601f168201915b5050505050905090565b600061098382611a49565b6004600083815260200190815260200160002060009054906101000a900473ffffffffffffffffffffffffffffffffffffffff169050919050565b60006109c982610fb1565b90508073ffffffffffffffffffffffffffffffffffffffff168373ffffffffffffffffffffffffffffffffffffffff1603610a39576040517f08c379a0000000000000000000000000000000000000000000000000000000008152600401610a30906137ff565b60405180910390fd5b8073ffffffffffffffffffffffffffffffffffffffff16610a58611a94565b73ffffffffffffffffffffffffffffffffffffffff161480610a875750610a8681610a81611a94565b611609565b5b610ac6576040517f08c379a0000000000000000000000000000000000000000000000000000000008152600401610abd90613891565b60405180910390fd5b610ad08383611a9c565b505050565b601a6020528060005260406000206000915090508060000160009054906101000a900473ffffffffffffffffffffffffffffffffffffffff1690806001015490806002018054610b249061375c565b80601f0160208091040260200160405190810160405280929190818152602001828054610b509061375c565b8015610b9d5780601f10610b7257610100808354040283529160200191610b9d565b820191906000526020600020905b815481529060010190602001808311610b8057829003601f168201915b505050505090806003018054610bb29061375c565b80601f0160208091040260200160405190810160405280929190818152602001828054610bde9061375c565b8015610c2b5780601f10610c0057610100808354040283529160200191610c2b565b820191906000526020600020905b815481529060010190602001808311610c0e57829003601f168201915b5050505050905084565b610c3d611b55565b80601760006101000a81548160ff02191690831515021790555050565b601760009054906101000a900460ff1681565b6000600880549050905090565b610c8b610c85611a94565b82611bd3565b610cca576040517f08c379a0000000000000000000000000000000000000000000000000000000008152600401610cc190613923565b60405180910390fd5b610cd5838383611c68565b505050565b60608282604051602001610cef9291906139cb565b604051602081830303815290604052905092915050565b6000610d1183611047565b8210610d52576040517f08c379a0000000000000000000000000000000000000000000000000000000008152600401610d4990613a6c565b60405180910390fd5b600660008473ffffffffffffffffffffffffffffffffffffffff1673ffffffffffffffffffffffffffffffffffffffff168152602001908152602001600020600083815260200190815260200160002054905092915050565b610db3612cbe565b600f6040518060e0016040529081600082015481526020016001820160009054906101000a900473ffffffffffffffffffffffffffffffffffffffff1673ffffffffffffffffffffffffffffffffffffffff1673ffffffffffffffffffffffffffffffffffffffff16815260200160028201548152602001600382015481526020016004820154815260200160058201548152602001600682015481525050905090565b600c60009054906101000a900473ffffffffffffffffffffffffffffffffffffffff1673ffffffffffffffffffffffffffffffffffffffff163373ffffffffffffffffffffffffffffffffffffffff1614610ede576040517f11016bf300000000000000000000000000000000000000000000000000000000815260040160405180910390fd5b817f2f0b831c6fe9646a4b10331d4576d11f5aa621c89fcef2a0c8618c9962bba48d82604051610f0e9190613bac565b60405180910390a25050565b610f358383836040518060200160405280600081525061153f565b505050565b6000610f44610c6d565b8210610f85576040517f08c379a0000000000000000000000000000000000000000000000000000000008152600401610f7c90613c39565b60405180910390fd5b60088281548110610f9957610f98613c59565b5b90600052602060002001549050919050565b60185481565b600080610fbd83611f61565b9050600073ffffffffffffffffffffffffffffffffffffffff168173ffffffffffffffffffffffffffffffffffffffff160361102e576040517f08c379a000000000000000000000000000000000000000000000000000000000815260040161102590613cd4565b60405180910390fd5b80915050919050565b6000611041611b55565b47905090565b60008073ffffffffffffffffffffffffffffffffffffffff168273ffffffffffffffffffffffffffffffffffffffff16036110b7576040517f08c379a00000000000000000000000000000000000000000000000000000000081526004016110ae90613d66565b60405180910390fd5b600360008373ffffffffffffffffffffffffffffffffffffffff1673ffffffffffffffffffffffffffffffffffffffff168152602001908152602001600020549050919050565b60195481565b61110c611b55565b6111166000611f9e565b565b600c60009054906101000a900473ffffffffffffffffffffffffffffffffffffffff1681565b6060600061114b83611746565b90506111578482610cda565b91505092915050565b60165481565b6000601760009054906101000a900460ff16156111b8576040517f08c379a00000000000000000000000000000000000000000000000000000000081526004016111af90613dd2565b60405180910390fd5b6111c0611b55565b600f60010160009054906101000a900473ffffffffffffffffffffffffffffffffffffffff1673ffffffffffffffffffffffffffffffffffffffff163373ffffffffffffffffffffffffffffffffffffffff161461121d57600080fd5b60185460195410611263576040517f08c379a000000000000000000000000000000000000000000000000000000000815260040161125a90613e64565b60405180910390fd5b6001601960008282546112769190613eb3565b9250508190555061128933601954612064565b60006040518060800160405280600f60010160009054906101000a900473ffffffffffffffffffffffffffffffffffffffff1673ffffffffffffffffffffffffffffffffffffffff168152602001601954815260200185815260200184815250905080601a6000601954815260200190815260200160002060008201518160000160006101000a81548173ffffffffffffffffffffffffffffffffffffffff021916908373ffffffffffffffffffffffffffffffffffffffff1602179055506020820151816001015560408201518160020190816113679190614089565b50606082015181600301908161137d9190614089565b509050506001601b600060195481526020019081526020016000206000600f60010160009054906101000a900473ffffffffffffffffffffffffffffffffffffffff1673ffffffffffffffffffffffffffffffffffffffff1673ffffffffffffffffffffffffffffffffffffffff16815260200190815260200160002060006101000a81548160ff02191690831515021790555060195491505092915050565b6000600a60009054906101000a900473ffffffffffffffffffffffffffffffffffffffff16905090565b6060600180546114569061375c565b80601f01602080910402602001604051908101604052809291908181526020018280546114829061375c565b80156114cf5780601f106114a4576101008083540402835291602001916114cf565b820191906000526020600020905b8154815290600101906020018083116114b257829003601f168201915b5050505050905090565b6114eb6114e4611a94565b8383612082565b5050565b600f8060000154908060010160009054906101000a900473ffffffffffffffffffffffffffffffffffffffff16908060020154908060030154908060040154908060050154908060060154905087565b61155061154a611a94565b83611bd3565b61158f576040517f08c379a000000000000000000000000000000000000000000000000000000000815260040161158690613923565b60405180910390fd5b61159b848484846121ee565b50505050565b60606115ac82611a49565b60006115b661224a565b905060008151116115d65760405180602001604052806000815250611601565b806115e084611746565b6040516020016115f192919061415b565b6040516020818303038152906040525b915050919050565b6000600560008473ffffffffffffffffffffffffffffffffffffffff1673ffffffffffffffffffffffffffffffffffffffff16815260200190815260200160002060008373ffffffffffffffffffffffffffffffffffffffff1673ffffffffffffffffffffffffffffffffffffffff16815260200190815260200160002060009054906101000a900460ff16905092915050565b6116a5611b55565b600073ffffffffffffffffffffffffffffffffffffffff168173ffffffffffffffffffffffffffffffffffffffff1603611714576040517f08c379a000000000000000000000000000000000000000000000000000000000815260040161170b906141f1565b60405180910390fd5b61171d81611f9e565b50565b600b60009054906101000a900473ffffffffffffffffffffffffffffffffffffffff1681565b60606000600161175584611814565b01905060008167ffffffffffffffff81111561177457611773613120565b5b6040519080825280601f01601f1916602001820160405280156117a65781602001600182028036833780820191505090505b509050600082602001820190505b600115611809578080600190039150507f3031323334353637383961626364656600000000000000000000000000000000600a86061a8153600a85816117fd576117fc614211565b5b049450600085036117b4575b819350505050919050565b600080600090507a184f03e93ff9f4daa797ed6e38ed64bf6a1f0100000000000000008310611872577a184f03e93ff9f4daa797ed6e38ed64bf6a1f010000000000000000838161186857611867614211565b5b0492506040810190505b6d04ee2d6d415b85acef810000000083106118af576d04ee2d6d415b85acef810000000083816118a5576118a4614211565b5b0492506020810190505b662386f26fc1000083106118de57662386f26fc1000083816118d4576118d3614211565b5b0492506010810190505b6305f5e1008310611907576305f5e10083816118fd576118fc614211565b5b0492506008810190505b612710831061192c57612710838161192257611921614211565b5b0492506004810190505b6064831061194f576064838161194557611944614211565b5b0492506002810190505b600a831061195e576001810190505b80915050919050565b60007f80ac58cd000000000000000000000000000000000000000000000000000000007bffffffffffffffffffffffffffffffffffffffffffffffffffffffff1916827bffffffffffffffffffffffffffffffffffffffffffffffffffffffff19161480611a3257507f5b5e139f000000000000000000000000000000000000000000000000000000007bffffffffffffffffffffffffffffffffffffffffffffffffffffffff1916827bffffffffffffffffffffffffffffffffffffffffffffffffffffffff1916145b80611a425750611a4182612261565b5b9050919050565b611a52816122cb565b611a91576040517f08c379a0000000000000000000000000000000000000000000000000000000008152600401611a8890613cd4565b60405180910390fd5b50565b600033905090565b816004600083815260200190815260200160002060006101000a81548173ffffffffffffffffffffffffffffffffffffffff021916908373ffffffffffffffffffffffffffffffffffffffff160217905550808273ffffffffffffffffffffffffffffffffffffffff16611b0f83610fb1565b73ffffffffffffffffffffffffffffffffffffffff167f8c5be1e5ebec7d5bd14f71427d1e84f3dd0314c0f7b2291e5b200ac8c7c3b92560405160405180910390a45050565b611b5d611a94565b73ffffffffffffffffffffffffffffffffffffffff16611b7b61141d565b73ffffffffffffffffffffffffffffffffffffffff1614611bd1576040517f08c379a0000000000000000000000000000000000000000000000000000000008152600401611bc89061428c565b60405180910390fd5b565b600080611bdf83610fb1565b90508073ffffffffffffffffffffffffffffffffffffffff168473ffffffffffffffffffffffffffffffffffffffff161480611c215750611c208185611609565b5b80611c5f57508373ffffffffffffffffffffffffffffffffffffffff16611c4784610978565b73ffffffffffffffffffffffffffffffffffffffff16145b91505092915050565b8273ffffffffffffffffffffffffffffffffffffffff16611c8882610fb1565b73ffffffffffffffffffffffffffffffffffffffff1614611cde576040517f08c379a0000000000000000000000000000000000000000000000000000000008152600401611cd59061431e565b60405180910390fd5b600073ffffffffffffffffffffffffffffffffffffffff168273ffffffffffffffffffffffffffffffffffffffff1603611d4d576040517f08c379a0000000000000000000000000000000000000000000000000000000008152600401611d44906143b0565b60405180910390fd5b611d5a838383600161230c565b8273ffffffffffffffffffffffffffffffffffffffff16611d7a82610fb1565b73ffffffffffffffffffffffffffffffffffffffff1614611dd0576040517f08c379a0000000000000000000000000000000000000000000000000000000008152600401611dc79061431e565b60405180910390fd5b6004600082815260200190815260200160002060006101000a81549073ffffffffffffffffffffffffffffffffffffffff02191690556001600360008573ffffffffffffffffffffffffffffffffffffffff1673ffffffffffffffffffffffffffffffffffffffff168152602001908152602001600020600082825403925050819055506001600360008473ffffffffffffffffffffffffffffffffffffffff1673ffffffffffffffffffffffffffffffffffffffff16815260200190815260200160002060008282540192505081905550816002600083815260200190815260200160002060006101000a81548173ffffffffffffffffffffffffffffffffffffffff021916908373ffffffffffffffffffffffffffffffffffffffff160217905550808273ffffffffffffffffffffffffffffffffffffffff168473ffffffffffffffffffffffffffffffffffffffff167fddf252ad1be2c89b69c2b068fc378daa952ba7f163c4a11628f55a4df523b3ef60405160405180910390a4611f5c838383600161246a565b505050565b60006002600083815260200190815260200160002060009054906101000a900473ffffffffffffffffffffffffffffffffffffffff169050919050565b6000600a60009054906101000a900473ffffffffffffffffffffffffffffffffffffffff16905081600a60006101000a81548173ffffffffffffffffffffffffffffffffffffffff021916908373ffffffffffffffffffffffffffffffffffffffff1602179055508173ffffffffffffffffffffffffffffffffffffffff168173ffffffffffffffffffffffffffffffffffffffff167f8be0079c531659141344cd1fd0a4f28419497f9722a3daafe3b4186f6b6457e060405160405180910390a35050565b61207e828260405180602001604052806000815250612470565b5050565b8173ffffffffffffffffffffffffffffffffffffffff168373ffffffffffffffffffffffffffffffffffffffff16036120f0576040517f08c379a00000000000000000000000000000000000000000000000000000000081526004016120e79061441c565b60405180910390fd5b80600560008573ffffffffffffffffffffffffffffffffffffffff1673ffffffffffffffffffffffffffffffffffffffff16815260200190815260200160002060008473ffffffffffffffffffffffffffffffffffffffff1673ffffffffffffffffffffffffffffffffffffffff16815260200190815260200160002060006101000a81548160ff0219169083151502179055508173ffffffffffffffffffffffffffffffffffffffff168373ffffffffffffffffffffffffffffffffffffffff167f17307eab39ab6107e8899845ad3d59bd9653f200f220920489ca2b5937696c31836040516121e19190612dd4565b60405180910390a3505050565b6121f9848484611c68565b612205848484846124cb565b612244576040517f08c379a000000000000000000000000000000000000000000000000000000000815260040161223b906144ae565b60405180910390fd5b50505050565b606060405180602001604052806000815250905090565b60007f01ffc9a7000000000000000000000000000000000000000000000000000000007bffffffffffffffffffffffffffffffffffffffffffffffffffffffff1916827bffffffffffffffffffffffffffffffffffffffffffffffffffffffff1916149050919050565b60008073ffffffffffffffffffffffffffffffffffffffff166122ed83611f61565b73ffffffffffffffffffffffffffffffffffffffff1614159050919050565b61231884848484612652565b600181111561235c576040517f08c379a000000000000000000000000000000000000000000000000000000000815260040161235390614540565b60405180910390fd5b6000829050600073ffffffffffffffffffffffffffffffffffffffff168573ffffffffffffffffffffffffffffffffffffffff16036123a35761239e81612778565b6123e2565b8373ffffffffffffffffffffffffffffffffffffffff168573ffffffffffffffffffffffffffffffffffffffff16146123e1576123e085826127c1565b5b5b600073ffffffffffffffffffffffffffffffffffffffff168473ffffffffffffffffffffffffffffffffffffffff16036124245761241f8161292e565b612463565b8473ffffffffffffffffffffffffffffffffffffffff168473ffffffffffffffffffffffffffffffffffffffff16146124625761246184826129ff565b5b5b5050505050565b50505050565b61247a8383612a7e565b61248760008484846124cb565b6124c6576040517f08c379a00000000000000000000000000000000000000000000000000000000081526004016124bd906144ae565b60405180910390fd5b505050565b60006124ec8473ffffffffffffffffffffffffffffffffffffffff16612c9b565b15612645578373ffffffffffffffffffffffffffffffffffffffff1663150b7a02612515611a94565b8786866040518563ffffffff1660e01b815260040161253794939291906145b5565b6020604051808303816000875af192505050801561257357506040513d601f19601f820116820180604052508101906125709190614616565b60015b6125f5573d80600081146125a3576040519150601f19603f3d011682016040523d82523d6000602084013e6125a8565b606091505b5060008151036125ed576040517f08c379a00000000000000000000000000000000000000000000000000000000081526004016125e4906144ae565b60405180910390fd5b805181602001fd5b63150b7a0260e01b7bffffffffffffffffffffffffffffffffffffffffffffffffffffffff1916817bffffffffffffffffffffffffffffffffffffffffffffffffffffffff19161491505061264a565b600190505b949350505050565b600181111561277257600073ffffffffffffffffffffffffffffffffffffffff168473ffffffffffffffffffffffffffffffffffffffff16146126e65780600360008673ffffffffffffffffffffffffffffffffffffffff1673ffffffffffffffffffffffffffffffffffffffff16815260200190815260200160002060008282546126de9190614643565b925050819055505b600073ffffffffffffffffffffffffffffffffffffffff168373ffffffffffffffffffffffffffffffffffffffff16146127715780600360008573ffffffffffffffffffffffffffffffffffffffff1673ffffffffffffffffffffffffffffffffffffffff16815260200190815260200160002060008282546127699190613eb3565b925050819055505b5b50505050565b6008805490506009600083815260200190815260200160002081905550600881908060018154018082558091505060019003906000526020600020016000909190919091505550565b600060016127ce84611047565b6127d89190614643565b90506000600760008481526020019081526020016000205490508181146128bd576000600660008673ffffffffffffffffffffffffffffffffffffffff1673ffffffffffffffffffffffffffffffffffffffff168152602001908152602001600020600084815260200190815260200160002054905080600660008773ffffffffffffffffffffffffffffffffffffffff1673ffffffffffffffffffffffffffffffffffffffff168152602001908152602001600020600084815260200190815260200160002081905550816007600083815260200190815260200160002081905550505b6007600084815260200190815260200160002060009055600660008573ffffffffffffffffffffffffffffffffffffffff1673ffffffffffffffffffffffffffffffffffffffff16815260200190815260200160002060008381526020019081526020016000206000905550505050565b600060016008805490506129429190614643565b905060006009600084815260200190815260200160002054905060006008838154811061297257612971613c59565b5b90600052602060002001549050806008838154811061299457612993613c59565b5b9060005260206000200181905550816009600083815260200190815260200160002081905550600960008581526020019081526020016000206000905560088054806129e3576129e2614677565b5b6001900381819060005260206000200160009055905550505050565b6000612a0a83611047565b905081600660008573ffffffffffffffffffffffffffffffffffffffff1673ffffffffffffffffffffffffffffffffffffffff168152602001908152602001600020600083815260200190815260200160002081905550806007600084815260200190815260200160002081905550505050565b600073ffffffffffffffffffffffffffffffffffffffff168273ffffffffffffffffffffffffffffffffffffffff1603612aed576040517f08c379a0000000000000000000000000000000000000000000000000000000008152600401612ae4906146f2565b60405180910390fd5b612af6816122cb565b15612b36576040517f08c379a0000000000000000000000000000000000000000000000000000000008152600401612b2d9061475e565b60405180910390fd5b612b4460008383600161230c565b612b4d816122cb565b15612b8d576040517f08c379a0000000000000000000000000000000000000000000000000000000008152600401612b849061475e565b60405180910390fd5b6001600360008473ffffffffffffffffffffffffffffffffffffffff1673ffffffffffffffffffffffffffffffffffffffff16815260200190815260200160002060008282540192505081905550816002600083815260200190815260200160002060006101000a81548173ffffffffffffffffffffffffffffffffffffffff021916908373ffffffffffffffffffffffffffffffffffffffff160217905550808273ffffffffffffffffffffffffffffffffffffffff16600073ffffffffffffffffffffffffffffffffffffffff167fddf252ad1be2c89b69c2b068fc378daa952ba7f163c4a11628f55a4df523b3ef60405160405180910390a4612c9760008383600161246a565b5050565b6000808273ffffffffffffffffffffffffffffffffffffffff163b119050919050565b6040518060e0016040528060008019168152602001600073ffffffffffffffffffffffffffffffffffffffff16815260200160008152602001600080191681526020016000801916815260200160008019168152602001600080191681525090565b6000604051905090565b600080fd5b600080fd5b60007fffffffff0000000000000000000000000000000000000000000000000000000082169050919050565b612d6981612d34565b8114612d7457600080fd5b50565b600081359050612d8681612d60565b92915050565b600060208284031215612da257612da1612d2a565b5b6000612db084828501612d77565b91505092915050565b60008115159050919050565b612dce81612db9565b82525050565b6000602082019050612de96000830184612dc5565b92915050565b600081519050919050565b600082825260208201905092915050565b60005b83811015612e29578082015181840152602081019050612e0e565b60008484015250505050565b6000601f19601f8301169050919050565b6000612e5182612def565b612e5b8185612dfa565b9350612e6b818560208601612e0b565b612e7481612e35565b840191505092915050565b60006020820190508181036000830152612e998184612e46565b905092915050565b6000819050919050565b612eb481612ea1565b8114612ebf57600080fd5b50565b600081359050612ed181612eab565b92915050565b600060208284031215612eed57612eec612d2a565b5b6000612efb84828501612ec2565b91505092915050565b600073ffffffffffffffffffffffffffffffffffffffff82169050919050565b6000612f2f82612f04565b9050919050565b612f3f81612f24565b82525050565b6000602082019050612f5a6000830184612f36565b92915050565b612f6981612f24565b8114612f7457600080fd5b50565b600081359050612f8681612f60565b92915050565b60008060408385031215612fa357612fa2612d2a565b5b6000612fb185828601612f77565b9250506020612fc285828601612ec2565b9150509250929050565b6000612fd782612f04565b9050919050565b612fe781612fcc565b82525050565b612ff681612ea1565b82525050565b60006080820190506130116000830187612fde565b61301e6020830186612fed565b81810360408301526130308185612e46565b905081810360608301526130448184612e46565b905095945050505050565b61305881612db9565b811461306357600080fd5b50565b6000813590506130758161304f565b92915050565b60006020828403121561309157613090612d2a565b5b600061309f84828501613066565b91505092915050565b60006020820190506130bd6000830184612fed565b92915050565b6000806000606084860312156130dc576130db612d2a565b5b60006130ea86828701612f77565b93505060206130fb86828701612f77565b925050604061310c86828701612ec2565b9150509250925092565b600080fd5b600080fd5b7f4e487b7100000000000000000000000000000000000000000000000000000000600052604160045260246000fd5b61315882612e35565b810181811067ffffffffffffffff8211171561317757613176613120565b5b80604052505050565b600061318a612d20565b9050613196828261314f565b919050565b600067ffffffffffffffff8211156131b6576131b5613120565b5b6131bf82612e35565b9050602081019050919050565b82818337600083830152505050565b60006131ee6131e98461319b565b613180565b90508281526020810184848401111561320a5761320961311b565b5b6132158482856131cc565b509392505050565b600082601f83011261323257613231613116565b5b81356132428482602086016131db565b91505092915050565b6000806040838503121561326257613261612d2a565b5b600083013567ffffffffffffffff8111156132805761327f612d2f565b5b61328c8582860161321d565b925050602083013567ffffffffffffffff8111156132ad576132ac612d2f565b5b6132b98582860161321d565b9150509250929050565b6000819050919050565b6132d6816132c3565b82525050565b6132e581612fcc565b82525050565b6132f481612ea1565b82525050565b60e08201600082015161331060008501826132cd565b50602082015161332360208501826132dc565b50604082015161333660408501826132eb565b50606082015161334960608501826132cd565b50608082015161335c60808501826132cd565b5060a082015161336f60a08501826132cd565b5060c082015161338260c08501826132cd565b50505050565b600060e08201905061339d60008301846132fa565b92915050565b600080fd5b600060e082840312156133be576133bd6133a3565b5b81905092915050565b60008061010083850312156133df576133de612d2a565b5b60006133ed85828601612ec2565b92505060206133fe858286016133a8565b9150509250929050565b60006020828403121561341e5761341d612d2a565b5b600061342c84828501612f77565b91505092915050565b6000819050919050565b600061345a61345561345084612f04565b613435565b612f04565b9050919050565b600061346c8261343f565b9050919050565b600061347e82613461565b9050919050565b61348e81613473565b82525050565b60006020820190506134a96000830184613485565b92915050565b600080604083850312156134c6576134c5612d2a565b5b600083013567ffffffffffffffff8111156134e4576134e3612d2f565b5b6134f08582860161321d565b925050602061350185828601612ec2565b9150509250929050565b6000806040838503121561352257613521612d2a565b5b600061353085828601612f77565b925050602061354185828601613066565b9150509250929050565b613554816132c3565b82525050565b600060e08201905061356f600083018a61354b565b61357c6020830189612fde565b6135896040830188612fed565b613596606083018761354b565b6135a3608083018661354b565b6135b060a083018561354b565b6135bd60c083018461354b565b98975050505050505050565b600067ffffffffffffffff8211156135e4576135e3613120565b5b6135ed82612e35565b9050602081019050919050565b600061360d613608846135c9565b613180565b9050828152602081018484840111156136295761362861311b565b5b6136348482856131cc565b509392505050565b600082601f83011261365157613650613116565b5b81356136618482602086016135fa565b91505092915050565b6000806000806080858703121561368457613683612d2a565b5b600061369287828801612f77565b94505060206136a387828801612f77565b93505060406136b487828801612ec2565b925050606085013567ffffffffffffffff8111156136d5576136d4612d2f565b5b6136e18782880161363c565b91505092959194509250565b6000806040838503121561370457613703612d2a565b5b600061371285828601612f77565b925050602061372385828601612f77565b9150509250929050565b7f4e487b7100000000000000000000000000000000000000000000000000000000600052602260045260246000fd5b6000600282049050600182168061377457607f821691505b6020821081036137875761378661372d565b5b50919050565b7f4552433732313a20617070726f76616c20746f2063757272656e74206f776e6560008201527f7200000000000000000000000000000000000000000000000000000000000000602082015250565b60006137e9602183612dfa565b91506137f48261378d565b604082019050919050565b60006020820190508181036000830152613818816137dc565b9050919050565b7f4552433732313a20617070726f76652063616c6c6572206973206e6f7420746f60008201527f6b656e206f776e6572206f7220617070726f76656420666f7220616c6c000000602082015250565b600061387b603d83612dfa565b91506138868261381f565b604082019050919050565b600060208201905081810360008301526138aa8161386e565b9050919050565b7f4552433732313a2063616c6c6572206973206e6f7420746f6b656e206f776e6560008201527f72206f7220617070726f76656400000000000000000000000000000000000000602082015250565b600061390d602d83612dfa565b9150613918826138b1565b604082019050919050565b6000602082019050818103600083015261393c81613900565b9050919050565b600081905092915050565b600061395982612def565b6139638185613943565b9350613973818560208601612e0b565b80840191505092915050565b7f2000000000000000000000000000000000000000000000000000000000000000600082015250565b60006139b5600183613943565b91506139c08261397f565b600182019050919050565b60006139d7828561394e565b91506139e2826139a8565b91506139ee828461394e565b91508190509392505050565b7f455243373231456e756d657261626c653a206f776e657220696e646578206f7560008201527f74206f6620626f756e6473000000000000000000000000000000000000000000602082015250565b6000613a56602b83612dfa565b9150613a61826139fa565b604082019050919050565b60006020820190508181036000830152613a8581613a49565b9050919050565b600082905092915050565b6000613aa66020840184612ec2565b905092915050565b60408201613abf6000830183613a97565b613acc60008501826132eb565b50613ada6020830183613a97565b613ae760208501826132eb565b50505050565b600082905092915050565b60408201613b096000830183613a97565b613b1660008501826132eb565b50613b246020830183613a97565b613b3160208501826132eb565b50505050565b60e08201613b486000830183613a8c565b613b556000850182613aae565b50613b636040830183613a97565b613b7060408501826132eb565b50613b7e6060830183613a8c565b613b8b6060850182613aae565b50613b9960a0830183613aed565b613ba660a0850182613af8565b50505050565b600060e082019050613bc16000830184613b37565b92915050565b7f455243373231456e756d657261626c653a20676c6f62616c20696e646578206f60008201527f7574206f6620626f756e64730000000000000000000000000000000000000000602082015250565b6000613c23602c83612dfa565b9150613c2e82613bc7565b604082019050919050565b60006020820190508181036000830152613c5281613c16565b9050919050565b7f4e487b7100000000000000000000000000000000000000000000000000000000600052603260045260246000fd5b7f4552433732313a20696e76616c696420746f6b656e2049440000000000000000600082015250565b6000613cbe601883612dfa565b9150613cc982613c88565b602082019050919050565b60006020820190508181036000830152613ced81613cb1565b9050919050565b7f4552433732313a2061646472657373207a65726f206973206e6f74206120766160008201527f6c6964206f776e65720000000000000000000000000000000000000000000000602082015250565b6000613d50602983612dfa565b9150613d5b82613cf4565b604082019050919050565b60006020820190508181036000830152613d7f81613d43565b9050919050565b7f436f6e74726163742063757272656e746c792070617573656400000000000000600082015250565b6000613dbc601983612dfa565b9150613dc782613d86565b602082019050919050565b60006020820190508181036000830152613deb81613daf565b9050919050565b7f457863656564206d6178696d756d20546f6b776e466163746f7279207375707060008201527f6c79000000000000000000000000000000000000000000000000000000000000602082015250565b6000613e4e602283612dfa565b9150613e5982613df2565b604082019050919050565b60006020820190508181036000830152613e7d81613e41565b9050919050565b7f4e487b7100000000000000000000000000000000000000000000000000000000600052601160045260246000fd5b6000613ebe82612ea1565b9150613ec983612ea1565b9250828201905080821115613ee157613ee0613e84565b5b92915050565b60008190508160005260206000209050919050565b60006020601f8301049050919050565b600082821b905092915050565b600060088302613f497fffffffffffffffffffffffffffffffffffffffffffffffffffffffffffffffff82613f0c565b613f538683613f0c565b95508019841693508086168417925050509392505050565b6000613f86613f81613f7c84612ea1565b613435565b612ea1565b9050919050565b6000819050919050565b613fa083613f6b565b613fb4613fac82613f8d565b848454613f19565b825550505050565b600090565b613fc9613fbc565b613fd4818484613f97565b505050565b5b81811015613ff857613fed600082613fc1565b600181019050613fda565b5050565b601f82111561403d5761400e81613ee7565b61401784613efc565b81016020851015614026578190505b61403a61403285613efc565b830182613fd9565b50505b505050565b600082821c905092915050565b600061406060001984600802614042565b1980831691505092915050565b6000614079838361404f565b9150826002028217905092915050565b61409282612def565b67ffffffffffffffff8111156140ab576140aa613120565b5b6140b5825461375c565b6140c0828285613ffc565b600060209050601f8311600181146140f357600084156140e1578287015190505b6140eb858261406d565b865550614153565b601f19841661410186613ee7565b60005b8281101561412957848901518255600182019150602085019450602081019050614104565b868310156141465784890151614142601f89168261404f565b8355505b6001600288020188555050505b505050505050565b6000614167828561394e565b9150614173828461394e565b91508190509392505050565b7f4f776e61626c653a206e6577206f776e657220697320746865207a65726f206160008201527f6464726573730000000000000000000000000000000000000000000000000000602082015250565b60006141db602683612dfa565b91506141e68261417f565b604082019050919050565b6000602082019050818103600083015261420a816141ce565b9050919050565b7f4e487b7100000000000000000000000000000000000000000000000000000000600052601260045260246000fd5b7f4f776e61626c653a2063616c6c6572206973206e6f7420746865206f776e6572600082015250565b6000614276602083612dfa565b915061428182614240565b602082019050919050565b600060208201905081810360008301526142a581614269565b9050919050565b7f4552433732313a207472616e736665722066726f6d20696e636f72726563742060008201527f6f776e6572000000000000000000000000000000000000000000000000000000602082015250565b6000614308602583612dfa565b9150614313826142ac565b604082019050919050565b60006020820190508181036000830152614337816142fb565b9050919050565b7f4552433732313a207472616e7366657220746f20746865207a65726f2061646460008201527f7265737300000000000000000000000000000000000000000000000000000000602082015250565b600061439a602483612dfa565b91506143a58261433e565b604082019050919050565b600060208201905081810360008301526143c98161438d565b9050919050565b7f4552433732313a20617070726f766520746f2063616c6c657200000000000000600082015250565b6000614406601983612dfa565b9150614411826143d0565b602082019050919050565b60006020820190508181036000830152614435816143f9565b9050919050565b7f4552433732313a207472616e7366657220746f206e6f6e20455243373231526560008201527f63656976657220696d706c656d656e7465720000000000000000000000000000602082015250565b6000614498603283612dfa565b91506144a38261443c565b604082019050919050565b600060208201905081810360008301526144c78161448b565b9050919050565b7f455243373231456e756d657261626c653a20636f6e736563757469766520747260008201527f616e7366657273206e6f7420737570706f727465640000000000000000000000602082015250565b600061452a603583612dfa565b9150614535826144ce565b604082019050919050565b600060208201905081810360008301526145598161451d565b9050919050565b600081519050919050565b600082825260208201905092915050565b600061458782614560565b614591818561456b565b93506145a1818560208601612e0b565b6145aa81612e35565b840191505092915050565b60006080820190506145ca6000830187612f36565b6145d76020830186612f36565b6145e46040830185612fed565b81810360608301526145f6818461457c565b905095945050505050565b60008151905061461081612d60565b92915050565b60006020828403121561462c5761462b612d2a565b5b600061463a84828501614601565b91505092915050565b600061464e82612ea1565b915061465983612ea1565b925082820390508181111561467157614670613e84565b5b92915050565b7f4e487b7100000000000000000000000000000000000000000000000000000000600052603160045260246000fd5b7f4552433732313a206d696e7420746f20746865207a65726f2061646472657373600082015250565b60006146dc602083612dfa565b91506146e7826146a6565b602082019050919050565b6000602082019050818103600083015261470b816146cf565b9050919050565b7f4552433732313a20746f6b656e20616c7265616479206d696e74656400000000600082015250565b6000614748601c83612dfa565b915061475382614712565b602082019050919050565b600060208201905081810360008301526147778161473b565b905091905056fea2646970667358221220e7cbc6a1b1c8889dc31e1ba875df7f2959eac17abbb74856b305be8a6e3535d964736f6c63430008110033",
  "linkReferences": {},
  "deployedLinkReferences": {}
}